:040000008031112812
:10000800803120007F082100DD00813151218031BD
:1000180021005D082000FF0009009731DD2F200036
:100028005208013A031D19281A28342850081F3984
:100038000038031D2028212834282100CF1720004C
:100048005108033A031D29282A2830280130E800DE
:1000580068082100B70034282100B7013428342863
:1000680020005208031D39283A28502950081F3902
:10007800023A031D40284128502954080F39003AF4
:10008800031947284828502954080F39E800033035
:100098006802031850285128502921003C08203AAA
:1000A800031D572858285029CF172000D41B5D2836
:1000B8005E28712854080F39AF3E86008701010871
:1000C800E8006808ED0054080F39A93E860087014A
:1000D8000108E8006808EC00842854080F39AC3E91
:1000E800860087010108E8006808ED0054080F3908
:1000F800A63E860087010108E8006808EC0084280D
:100108006C18872888288D28FB30E8006808ED05DA
:100118008E286D15D41B912892289C286D08E8001C
:1001280054080F39AF3E8600870168088100A62869
:100138006D08E80054080F39AC3E8600870168084E
:100148008100A6285108033A031DAB28AC28CD2806
:100158006D0886008701811FB228B328C528D41BE3
:10016800B628B728BE2854080F39A93E860087014B
:100178008114C52854080F39A63E860087018114CA
:10018800C5288430E8006D08860087016808810466
:1001980050290430E8006808ED066D0886008701DC
:1001A800811FD728D828F3287F30E8006D088600FB
:1001B8008701680881056D088600870101170530E9
:1001C800E3000030E4006D08E8006808E50001304D
:1001D800E6000030E700893121218031F92820002C
:1001E8006D08860087010117F92804302000E8000F
:1001F8006808ED06EC180129022909296D0886000E
:100208008701811F082909293129D41B0C290D29A7
:10021800142954080F39A93E8600870181101A292C
:1002280054080F39A63E8600870181103B30E8004C
:100238006D0886008701680881050530E3000030F5
:10024800E4006D08E8006808E5000130E6000030C9
:10025800E7008931212180313A293B302000E8002C
:100268006D0886008701680881053A29200054082E
:100278000F39983EE800E9010E30E93D6808EA00C8
:100288006908EB00FE30E8006A0886006B08870002
:100298006808810550295029080021003C08013AC6
:1002A800031D5729582967293D008E1A5C295D29A5
:1002B800672990011214121602302100DA005A0838
:1002C800BC00672967293D00101D6B296C297A2914
:1002D800121D6F2970297A29FB302100DA005A088B
:1002E8003D00900597314E2781317A293D008E1CBB
:1002F8007E297F298229200012117E2A101C852937
:1003080086299929121C89298A2999298531A025A4
:100318008131210012150430DA005A08BC00FE3081
:10032800DA005A083D0090059929101E9C299D293C
:10033800AB29121EA029A129AB2997317E2781312B
:10034800EF302100DA005A083D009005AB29101F54
:10035800AE29AF29D929121FB229B329C12973306F
:100368002000E3000030E400E5010130E600003041
:10037800E700893121218131C129BF302100DA000C
:100388005A083D00900521003F08031DCC29CF29BC
:100398000130BF02CF29BF08031DD329D429D92989
:1003A8008B311F238131D929D9293D00901EDD29A0
:1003B800DE29E629921EE129E229E629883104206E
:1003C8008131E6293D00901CEA29EB29FF29921C7E
:1003D800EE29EF29FF29FF302000E3007F30E400F9
:1003E800E5010130E6000030E70089312121813143
:1003F8003D009301FF29043021003C020318052A1F
:10040800062A092A200012117E2A3D00921D0D2A73
:100418000E2A7C2A2100DC0104305C02031C152A08
:10042800162A182A7C2A7C2A3D00901D1C2A1D2A7F
:100438007C2A0F082100DA005A08D500550CDA008A
:10044800DA0C5A0C0F39DB005B08C800F730DA0009
:100458005A083D00900521005519332A342A432AA9
:100468004808A93E8600870101080139DA000130F1
:10047800DA0601085A06FE395A068100522A480847
:10048800A63E8600870101080139DA000130DA0644
:1004980001085A06FE395A068100522AC808031D67
:1004A800562A572A5B2A833176238131702A723083
:1004B8002000E3000030E400D5302100DA005A08BB
:1004C8002000E5000030E6000030E70089312121F6
:1004D8008131702A702A7C2A01302100DA005A08FA
:1004E800DC0704305C02031C7A2A7B2A182A7C2A3F
:1004F800200012110800210012113508031D852A59
:10050800952A350886008701010D010D0139E5009E
:10051800E60165082200C300210066082200C40025
:10052800992A2200C301C401992A440843040319E3
:100538009E2A9F2AA22A21001215752B2100440801
:10054800033A031DA82AA92AAB2AC401AB2AC40866
:10055800031DAF2AB02AB22A1215752B4408023A95
:10056800031DB72AB82AC92ADE01DE0ADF01E00125
:1005780002308A31622282312100E5006508B50027
:100588000330E5006508C400742B4408013A031DD4
:10059800CE2ACF2A742B41304502031CD42AD52AEF
:1005A800DB2A4030E50065082200C600E22A210067
:1005B8004508E50065082200C600E22A4603FF3A1E
:1005C80021004507E5006508C5002030E5006508FD
:1005D8002200B70046082100E50065082200C50092
:1005E8002100C208031DF92AFA2A3C2B182B182BC4
:1005F8002200390884003A08850000082100E50037
:100608002200370886000230870021006508810033
:100618000130E50065082200B7070130B90700304E
:10062800BA3D0130C502182B2200C508031D1D2B39
:100638001E2BFC2A442B442B3C2B390884003A08F7
:10064800850000082100E5002200370886000230F6
:1006580087002100650881000130E5006508220057
:10066800B7070130B9070030BA3D0130C5023C2B4D
:100678002200C508031D412B422B212B442B442B60
:100688002100C508031D492B4A2B5E2B2200460872
:10069800403A031D502B512B572B02302100E50007
:1006A8006508C4005E2B03302100E5006508C4001E
:1006B8005E2B5E2BDE01DE0A2030E5006508DF00D8
:1006C800220046082100E6006608E00002308A3170
:1006D800622282312100E7006708B500742B742B71
:1006E800121508002D302100D6005608BF00550805
:1006F800FD39031D802B812BE82B550889363F399E
:10070800D6000130D635FF3E031D862B5635203ED8
:10071800D7005708C9004908D6005608CA0004304F
:10072800D6005608CA06490886008701010C890CBC
:100738000F390D3A031DA12BA22BE32BD901083049
:100748005902031CA82BA92BAB2BD32BD32B49085D
:10075800023E86008701403FD600413FD700560839
:100768008600570887000108D8005908503E8600BF
:100778008701580881004908023E86008701013038
:10078800810741310318810A0130D6005608D9077C
:1007980008305902031CD12BD22BAB2BD32B503052
:1007A800D6000030D7004908023E86008701560867
:1007B800C03F5708C13F89316B218331F72B8831FE
:1007C8007F208331F72BF72BFD3021005505D6000C
:1007D8005608043A031DF12BF22BF72B8C31D52444
:1007E8008331F72BF72B0800640080010131890B56
:1007F800F92B0034080008000034C23448347C3433
:1008080005340934023443340034023401340034EA
:10081800C03432340934043400340034013402342E
:1008280002340134003405342434003410340134E3
:1008380004342434023402340534243406340034B5
:1008480001340534243401340034013407340534C8
:100858008134033408340034023409340434013454
:10086800003402340A3400340034003407340534C8
:1008780002340234403400340034073405348234FE
:100888000234403400340034343403344D340034FA
:100898006934003463340034723400346F34003403
:1008A80063340034683400346934003470340034FC
:1008B8002034003454340034653400346334003454
:1008C800683400346E3400346F3400346C340034CF
:1008D8006F34003467340034793400342034003401
:1008E800493400346E340034633400342E34003418
:1008F800343403344334003444340034433400344F
:100908002034003452340034533400342D3400344D
:100918003234003433340034323400342034003478
:10092800453400346D340034753400346C3400348C
:100938006134003474340034693400346F34003462
:100948006E340034203400344434003465340034C8
:100958006D3400346F3400341234013400340234FE
:100968000234003400340834D83404340A340034EF
:1009780000340134013402340034013404340334C3
:100988000934043442347534743474346F346E3436
:1009980020345034723465347334733465346434B9
:1009A80020342D342D3420340D340A340034210001
:1009B80012113D009301900198010E302100E100D1
:1009C8009930E000E20102306202031CEC2CED2CAD
:1009D800EF2C032D032D6008860061088700810134
:1009E8000130E0070030E13D0130DE005E08E2073B
:1009F80002306202031C012D022DEF2C032D16304C
:100A08003D0091009F3097007B3092002100E30168
:100A18000C306302031C112D122D142D312D312D94
:100A28006308DE000130DE35FF3E031D172D5E35FD
:100A3800203E860087010030C03F0030C13F0030B3
:100A4800C23F0030C33F0130DE005E08E3070C30D0
:100A58006302031C302D312D142D3D000E17960115
:100A68000E120E13432DF7302100DE005E083D0004
:100A780090052100CF01A201A301A401432D3D004F
:100A88009019472D482D372D492D01302100DE00C2
:100A98005E08BD000130DE005E08BE00B901BA0183
:100AA800B801E30103306302031C5B2D5C2D5E2D4E
:100AB8007D2D7D2D6308AC3E86008701810163088A
:100AC800AF3E8600870181016308A63E8600870144
:100AD80081016308A93E8600870181010130DE009B
:100AE8005E08E30703306302031C7B2D7C2D5E2D1B
:100AF8007D2D2830DE005E08AC0016303D009800E1
:100B080050302100DE000030DF005E082000A20027
:100B180021005F082000A30008302100DE005E08E5
:100B28002000A10084302100DE005E082000A00023
:100B38002100D401BC010800210012113D009301DD
:100B4800900198010E30F3009930F200F401023060
:100B58007402031CB02DB12DB32DC72DC72D7208FB
:100B680086007308870081010130F2070030F33DE9
:100B78000130F0007008F40702307402031CC52D20
:100B8800C62DB32DC72D16303D0091009F3097001C
:100B98007B309200F5010C307502031CD42DD52D45
:100BA800D72DF42DF42D7508F0000130F035FF3EF7
:100BB800031DDA2D7035203E860087010030C03FC6
:100BC8000030C13F0030C23F0030C33F0130F00069
:100BD8007008F5070C307502031CF32DF42DD72D82
:100BE8003D000E1796010E120E13042EF730F0007A
:100BF800700890052100CF01A201A301A401042ED1
:100C08003D009019082E092EFA2D0A2E0130F00009
:100C180070082100BD000130F0007008BE00B90165
:100C2800BA01B801F50103307502031C1C2E1D2EF4
:100C38001F2E3E2E3E2E7508AC3E86008701810190
:100C48007508AF3E8600870181017508A63E8600BB
:100C5800870181017508A93E86008701810101305D
:100C6800F0007008F50703307502031C3C2E3D2E7A
:100C78001F2E3E2E2830F00070082100AC001630E0
:100C88003D0098005030F0000030F100700820005E
:100C9800A2007108A3000830F0007008A100843099
:100CA800F0007008A0002100D401BC010800210058
:100CB800490A860087010108F2007208F7007708E0
:100CC800F200F30173082402031D6C2E720823023C
:100CD80003186F2E702E752E2308F2007208F70085
:100CE800752E0330A03E860087017708F200F301D5
:100CF800F209F309F20A0319F30A403F7207F400F4
:100D0800413F733DF5007408A3007508A400F6017F
:100D1800A22E7608583E860087010108F2002008B6
:100D2800860021088700720881000130A007003082
:100D3800A13D0130F2007208F607A22E770876026C
:100D4800031CA72EA82E8D2EA92E0330A03E8600A8
:100D58008701160001040319B22EB32EDE2E0830C7
:100D6800F2004A0A86008701720881005830F200B2
:100D78000030F3004A08023E860087017208C03F2F
:100D88007308C13F490886008701011BCC2ECD2E70
:100D9800D52EC830F2004A08860087017208810003
:100DA8000C2F8830F2004A088600870172088100FB
:100DB8000C2F0C2F0830F2004A0A860087017208AF
:100DC80081005030F2000030F3004A08023E8600ED
:100DD80087017208C03F7308C13F8430F2004A0897
:100DE80086008701720881002508031DFC2E002F4C
:100DF80025088631FE2E002F2100A213BB08031DF3
:100E0800062F072F0C2F8B311F2386310C2F0C2F09
:100E18000800210033083204031D132F142F182F44
:100E28001030B2002730B3000130B2020030B33BBB
:100E38003D008E1C202F212F422F21003308320421
:100E4800031D272F282FBA2F003022000E1D013036
:100E58002100DE00DE0DDE0D22000E0821005E06F8
:100E6800FB395E0622008E000E1D3B2F3C2F3E2FC5
:100E78008E15BA2F8E11BA2FBA2FBA2F2100BC089F
:100E8800031D472F482F4C2F22000E118E11BA2F09
:100E980021003C08013A031D522F532F572F2200DF
:100EA8000E158E15BA2F21003C08023A031D5D2F3E
:100EB8005E2F622F22000E158E11BA2F21003C08DA
:100EC800043A031D682F692F6D2F22000E118E150D
:100ED800BA2F21003C08103A031D732F742F8D2F51
:100EE80033083204031D792F7A2FBA2F00302200DD
:100EF8000E1D01302100DE00DE0DDE0D22000E0881
:100F080021005E06FB395E0622008E008E11BA2F84
:100F1800BA2F21003C08203A031D932F942FBA2F93
:100F280033083204031D992F9A2FBA2F003022005C
:100F38000E1D01302100DE00DE0DDE0D22000E0840
:100F480021005E06FB395E0622008E000E1DAD2FC5
:100F5800AE2FB02F8E11BA2F8E15BA2FBA2FBA2FE7
:100F6800BA2FBA2FBA2FBA2FBA2FBA2F0800F50006
:100F78002030F1007108F6007008F1000130F135F9
:100F8800890BC32F7508F2000130F235FF3E031DAF
:100F9800C92F72357107F3000130F335FF3E031D89
:100FA800D12F7335F4007408F60776088600870198
:100FB8008113F008031DE12FE22FEB2F7608F100D3
:100FC8007508AF3E8600870171088100F42F760806
:100FD800F1007508AC3E8600870171088100F42F86
:100FE80076088600870101137608043E860087018B
:100FF80001170800080008008B31F4238831080025
:101008003D00181C082809282728210049088600BF
:1010180087010108803A031D1228132824282C0868
:10102800860087010108843A031D1B281C282428F0
:101038008C30F00049088600870170088100242858
:101048003D0018102728DF30F000700890050800D0
:10105800FC00771D302831283728F0017C088731BB
:10106800BB2788313728F71C3A283B284228F0014B
:10107800F00A7C088731BB27883142287C08983ED3
:10108800F800F9010E30F93D7808FA007908FB00FC
:101098007708F8007A0886007B08870078088100BE
:1010A800080020000C0CF000F00C700C0139210035
:1010B8004106031D6028612876284008031D65281D
:1010C80068280130C0027E28003020008C1D0130C5
:1010D800F00070082100C1006430F0007008C00002
:1010E8007E287E284008031D7A287E280130C00209
:1010F8007E287E28080021004608023A031D85281C
:1011080086288A2886315B268831AE28C601B4082D
:10111800031D8F289028AB280830F8004A0A86005B
:101128008701780881005030F8000030F9004A083B
:10113800023E860087017808C03F7908C13F8C309D
:10114800F8004A088600870178088100AE28B401B3
:10115800AE28AE2808002100E00012114408031D43
:10116800B628B8281215E528E1016008DE005E08F7
:10117800DF00BE280130DE005E08E1076108FF3AA3
:10118800031DC728C828CA28D728D7280130DF0751
:10119800FF305F0784310A0088310038031DD528E5
:1011A800D628BE28D72860082200B9008430BA00A3
:1011B80021006108DE005E08C500C201C401C40A3E
:1011C8001215080000302200A3000030A2004B30A6
:1011D800A1000030A000A401A50108302000E00013
:1011E80060082200A6002100C3011A302000E00098
:1011F8006008F700013088312C2088311E3020002B
:10120800E0006008F700023088312C208831F001B6
:10121800A0302000E0006008F1004030E1006108E3
:10122800F20002308A31092288312000E200620887
:101238002100B600B501C401080042296A29883195
:10124800552089316A298731FE2789316A298731F2
:10125800FF2789316A299731172789316A2983310C
:10126800FF2389316A298831002089316A2983312D
:10127800FE2389316A296A296A296A2920006408B3
:10128800003A03194B297F3A031965296A2963082B
:10129800013A03192F29033A03193329013A03198B
:1012A8003729063A03196A29773A03196A29013A4C
:1012B80003192329073A03192B29013A0319272966
:1012C8006A296308FF3A03193B296A2908002100A3
:1012D800CC01BB01B901BA01B401C6017F302000BD
:1012E800EF0021002C088600870120006F08810587
:1012F8000430EF006F082100AC067F302000EF00BB
:1013080021002C088600870120006F088105043021
:10131800EF006F082100AC067F302000EF002100AD
:101328004A088600870120006F0881052100CF0147
:10133800D001D101A201A301A4018B3188238931F5
:1013480003302000E3000030E400E5010030E6004F
:101358000030E7008931212189318E314E268931CB
:1013680008002100B901BA014608023A031DBD2947
:10137800BE29D9290830F5004A0A86008701750870
:1013880081005830F5000030F6004A08023E860019
:1013980087017508C03F7608C13FC830F5004A0884
:1013A8008600870175088100082A51082000570225
:1013B800031DE22921005008200056020318E529E0
:1013C800E629F02957082100D101D1072000560845
:1013D8002100D001D007F0298D31C225893158303C
:1013E800F5000030F60021002C08023E8600870137
:1013F8007508C03F7608C13FC830F5002C08860044
:10140800870175088100082A0800F5007008031D87
:101418000E2A172A7508AC3E860087010108F300DA
:101428007308F600202A7508AF3E86008701010878
:10143800F3007308F600202AF608031D242A252A3B
:10144800282A0030612A612A7108F3000230F4006A
:101458007608023E860087017308C03F7408C13FC2
:101468007208F300760A860087017308810040300D
:10147800F300760886008701730881058830F30039
:10148800760886008701730881047008031D4D2AB9
:10149800562A0430F3007508AC3E860087017308AD
:1014A80081065F2A0430F3007508AF3E8600870185
:1014B800730881065F2A7608612A08002100E30084
:1014C8005E08031D682A712A6308AC3E86008701FE
:1014D8000108E1006108E4007A2A6308AF3E86004B
:1014E80087010108E1006108E4007A2AE408031D85
:1014F8007E2A7F2A822A0030BB2ABB2A5F08E100A5
:101508000230E2006408023E860087016108C03F9D
:101518006208C13F6008E100640A8600870161082B
:1015280081004030E1006408860087016108810578
:101538008830E100640886008701610881045E083C
:10154800031DA72AB02A0430E1006308AC3E8600D8
:10155800870161088106B92A0430E1006308AF3EBB
:101568008600870161088106B92A6408BB2A080039
:101578002000D801D901032B2100CF1720005814CF
:10158800C52A21003708013A031DCB2ACC2A0F2B84
:101598002000D8140F2B0F2B2100CF170F2B210061
:1015A800CF172000D41BD92ADA2AE42A54080F3985
:1015B800AF3E860087010108F0007008F100EE2AAE
:1015C80054080F39AC3E860087010108F000700806
:1015D800F100EE2A710886008701811FF42AF52A96
:1015E8000F2B710886008701011DFB2AFC2A0F2B8F
:1015F8000130F0007008D8000F2B0F2B0F2B50086C
:101608001F39003A0319C02A013A0319D02A033AAC
:101618000319D32A0F2B2100CF1F132B142B1E2B9A
:101628005830CD000030CE004F140230F000700862
:10163800D0001E2B08002100BD08031D242B252BDC
:10164800872B0130F0007008BD00BE08031D2D2B4C
:101658002E2B872B0130F0007008BE004608023A96
:10166800031D372B382B442B2C0A86008701810158
:10167800C830F0002C088600870170088100872B8D
:101688004608013A031D492B4A2B872BB401083021
:10169800F000490A86008701700881005030F00088
:1016A8000030F1004908023E860087017008C03FFB
:1016B8007108C13F8430F00049088600870170082E
:1016C80081000130F0007008B4000830F0004A0AC8
:1016D80086008701700881005030F0000030F1006A
:1016E8004A08023E860087017008C03F7108C13F62
:1016F8008030F0004A088600870170088100872B37
:10170800872B872B872B08002000500E890C033964
:10171800003A0319902B912BE82BF32BF32BE82B92
:101728002100CF1708302000EE006E082100BC0011
:10173800F32B8D3148258B31F32B8E31DA268B3103
:10174800F32BD4302100CD000030CE004F140130EF
:101758002000EE006E082100D000CF17F32B8A314D
:10176800BC228B31F32BB82B803113208B31F32B18
:1017780020005408D23E2100CD000030CE004F1486
:1017880001302000EE006E082100D000CF17F32BA7
:101798002100CF1720005208EE005408D23E8600E0
:1017A80087016E088100F32B0230E3000030E4006B
:1017B800E5010030E6000030E700893121218B3156
:1017C800F32BF32BF32BF32B2000510884000D305F
:1017D80004020318F32B90310435003E8200080000
:1017E800200050081F39013A0319FB2BFC2BFE2B54
:1017F800632C632C500E890C0339013A0319052C0C
:10180800062C082C632C632C5408031D0C2C512C1B
:101818005408013A0319112C122C512C632C632CF7
:10182800512C3B302100CD000130CE000030D100DA
:101838000830D0004F14CF17632C3B302100CD0067
:101848000130CE00CF17632C200057082100A401D7
:10185800A407200056082100A301A3072030A000F8
:101868000130A100A501A217632C20302100CD0072
:101878000130CE000030D1000730D000C130F00078
:101888007008CF00632C20005208F0007008210077
:10189800C700CF17632C632C632C20005108003A33
:1018A8000319152C013A0319212C213A0319282C64
:1018B800013A0319392C033A0319472C632C080001
:1018C8002200C6002100C3013608031D6C2C7A2CA7
:1018D800360886008701010D010D01392200C30079
:1018E800C4014308C7004408C8007E2C2200C70171
:1018F800C8017E2C48084704031D832C842CD12C56
:101908002100360A860087016508010203188D2C1C
:101918008E2C982C360A8600870101082200C30005
:1019280043082100E500982CC301B32C4308A03ECE
:1019380086000230870001082200C3002100430806
:1019480022004607C4004408860001308700430887
:1019580081000130C30043082100C307B32C650888
:101968004302031CB82CB92C9A2CBA2CDE01A030E7
:101978002200C30043082100DF0040302200C400D9
:1019880044082100E00002308A3162228C312200B2
:10199800C50045082100B600D12C21004308D42CED
:1019A800080021002C08860087010030011B013047
:1019B800F7000430F5007508AC063C08083A031D2A
:1019C800E62CE72CFB2C200052083D009600160858
:1019D800031DEF2CF52C1030F50075082100BC0014
:1019E800FB2C0430F50075082100BC00FB2C4608D0
:1019F800013A031D002D012D362D5830F500003019
:101A0800F6002C08023E860087017508C03F76085C
:101A1800C13F8D31C2258C3121004C08023A031D8B
:101A2800162D172D1F2D8430F5002C0886008701F0
:101A380075088100472DF708031D232D242D2C2D13
:101A4800C830F5002C088600870175088100472DED
:101A58008830F5002C088600870175088100472D1D
:101A6800472D472DA21F392D3A2D452D2508031D39
:101A78003E2D422D25088D31402D422D2100A213E7
:101A8800452DC601472D080020005008803A031D47
:101A98004E2D4F2DC12DC030F00070082100CF0011
:101AA800B42DB0302100CD008430CE000030D100FC
:101AB8001230D000C12D043084008430850020000D
:101AC800520884070318850A003F2100CD0084309E
:101AD800CE004E08F1004D08F00002307007840077
:101AE80071080318710A85000008F2007208D00016
:101AF8004E08F1004D08F0000330700784007108AB
:101B08000318710A85000008F2007208D100C12D7F
:101B18000330200052020318922D932DAC2D013072
:101B2800840084308500520884070318850A003F22
:101B38002100CD008430CE004D0884004E08850079
:101B48000008F000F1017008D0007108D100C12D23
:101B58002100CF01C12DC12D2100CF01C12DC12DE3
:101B680020005308013A0319552D033A03195F2D34
:101B7800013A03198C2DB02DC12D08000830F00052
:101B88007008F40000302100510208300319500297
:101B98000318CF2DD02DEB2D5008F0007008F4005D
:101BA800CC08031DD82DD92DDE2D0130F00070088A
:101BB800CC00EB2D4C08013A031DE32DE42DEB2D51
:101BC8000230F0007008CC00EB2DEB2DEB2D03302C
:101BD800CD3E860087017408F000F101F009F10993
:101BE800F00A0319F10A403F7007F200413F713DC6
:101BF800F3007208D0007308D1007408F0002C0AB2
:101C080086008701700881005830F0007008CB000A
:101C18004F180F2E102E462E282E282E4D088400E1
:101C28004E0885000008F0004B0886008701700800
:101C380081000130CD070030CE3D0130F000700842
:101C4800CB070130F402282EF408031D2C2E2D2E6C
:101C5800122E4D2E4D2E462E4D0884004E0885001E
:101C68000008F0004B0886008701700881000130E9
:101C7800CD070030CE3D0130F0007008CB070130B1
:101C8800F402462EF408031D4A2E4B2E302E4D2EFC
:101C98004D2E08003D000E122100CF1B542E552E4C
:101CA8008D2EA21F582E592E6A2E0230F700770863
:101CB800C600BA08031D612E622E662E8931B52131
:101CC8008E31662E2100BE01BD01D92E0830F700E5
:101CD8004A0A86008701770881005030F7000030F3
:101CE800F8004A08023E860087017708C03F780856
:101CF800C13F8C30F7004A088600870177088100C9
:101D08008430F7002C088600870177088100D92ED7
:101D1800D92E2000D01F912E922EAD2E0130F70023
:101D280077082100C600B908031D9B2E9C2EA02E03
:101D38008931B5218E31A02E2100BE01BD01BB081D
:101D4800031DA72EA82ED92E8B311F238E31D92EF5
:101D5800D92E0230F70077082100C6000830F700B6
:101D68004A0A86008701770881005030F700003062
:101D7800F8004A08023E860087017708C03F7808C5
:101D8800C13F8430F7004A08860087017708810040
:101D9800BE01BD01BB08031DD22ED32ED92E8B3117
:101DA8001F238E31D92ED92ED92E08002100CF1706
:101DB8000E302000E9009930E800EA0102306A029A
:101DC800031CE72EE82EEA2EFE2EFE2E680886005B
:101DD8006908870081010130E8070030E93D0130DA
:101DE800FD007D08EA0702306A02031CFC2EFD2E66
:101DF800EA2EFE2E0030F0000030F1003030F20004
:101E08000030F3002030973198278E313D000E17AF
:101E18002000EB0103306B02031C132F142F162F25
:101E28002B2F2B2F6B08A63E8600870181016B089C
:101E3800A93E8600870181010130FD007D08EB077E
:101E480003306B02031C292F2A2F162F2B2F00304B
:101E5800F0000030F1000230F2000030F300D23020
:101E6800973198278E313D000E132830FD007D08EC
:101E78002100AC002030FD007D08C9004908FD00A4
:101E88007D08CA0020005208FD007D082100D4000A
:101E9800D408031D502F512F562F1030FD007D08F8
:101EA800BC006C2F01302000E3000030E400D43087
:101EB800FD007D08E5000130E6000030E7008931CB
:101EC80021218E312030FD007D082100BC006C2FBF
:101ED800080087310D278F31203021003C02031C78
:101EE800762F772FFF2F3D008E1C7B2F7C2F7E2F88
:101EF800FF2FFF2F21004108031D832F992F220058
:101F0800CD08031D882F892F9C2F2100C408031D8D
:101F18008E2F8F2F9C2FC6308831AF208F31220013
:101F2800CD01CD0A9C2F9C2F9C2F2200CD019C2FE8
:101F38002100C408031DA12FA22FFC2F403022002E
:101F4800C90049082100E500A0308C3164248F3194
:101F58002200CA004A08CB004B08031DB42FFC2FEF
:101F6800CC01EA2FD82FB82F4C08A03E86000130AC
:101F780087000108C9004C08203E8600033087000E
:101F880049088100E52F4C08A03E860001308700F3
:101F98000108013EC9004C08203E86000330870036
:101FA80049088100E52FE52F4C08A03E8600013046
:101FB800870001080A3A0319B82F073A0319B82FFE
:101FC800C72F0130C9004908CC07EA2F4B084C023B
:101FD800031CEF2FF02FD82FF12F4B08C900490809
:101FE8002100DE002030973165278F31FC2FFC2F30
:101FF80082317F228F3108008B31B32B8B31B82B84
:102008008B31F32B8B31B82B8B31F32B8B31942BFA
:102018008B319D2B8B31D82B8B31A52B8B31A12B61
:0C2028008B31BC2B8B31CC2B8B31F32B7C
:102E2E008831E6209731080023008C0110308D0088
:102E3E008E019731272797318431DB249731080093
:102E4E002100C001C1012200CD01CD0AF0302100C8
:102E5E00DE005E0822008E05F0302100DE005E08E6
:102E6E008E05080097311B2797313D2F2100BC0896
:102E7E00031D422F432F472F9731BA279731472FE4
:102E8E008F316D2797313D2F3D2F80311128210035
:102E9E00B80174302000E3000030E400E50100309A
:102EAE00E6000030E7008931212197313D008E1078
:102EBE001211FB30FD007D08900508002100E00096
:102ECE001211C408031D6C2F6D2F7C2F6008220079
:102EDE00B9000330BA0021005E08DF005F08C500AC
:102EEE00C201C20AC401C40A7C2F121508003D009B
:102EFE001215EF30FD007D0890058E140130FD0097
:102F0E007D082100B80075302000E3000030E40099
:102F1E00E5010030E6000030E700893121219731CC
:102F2E000800F5007508F4007408F600AA2F700862
:102F3E00F400760886008701740881000130F400E1
:102F4E007408F607AA2F0130F2020030F33BFF306F
:102F5E007306031DB42FFF307206031DB72FB82F53
:102F6E009E2FB92F08002100BC08031DBF2FC02FB4
:102F7E00DC2F3D008E019201163091009F3097009C
:102F8E007B309200210012150B178B17CF2F8E1549
:102F9E003D008E1DD32FD42FCE2FD52F01302100E3
:102FAE00DE005E08BC00DC2FDC2F0800A0308400A1
:102FBE000030850036308331F8239731313084006C
:102FCE000130850012308331F8239731A030840010
:102FDE000130850040308331F82397312030840052
:102FEE000330850040308331F8239731200097312C
:022FFE00392F69
:020000040001F9
:04000E0082CF4FDF6F
:00000001FF
