:020000040000fa
:080000000002040000000000f2
:020000040000fa
:1000080090020000900200009002000090020000a0
:100018009002000090020000900200009002000090
:100028009002000090020000900200009002000080
:100038009002000090020000900200009002000070
:100048009002000090020000900200009002000060
:100058009002000090020000900200009002000050
:100068009002000090020000900200009002000040
:100078009002000090020000900200009002000030
:100088009002000090020000900200009002000020
:100098009002000090020000900200009002000010
:1000a8009002000090020000900200009002000000
:1000b80090020000900200009002000090020000f0
:1000c80090020000900200009002000090020000e0
:1000d80090020000900200009002000090020000d0
:1000e80090020000900200009002000090020000c0
:1000f80090020000900200009002000090020000b0
:10010800900200009002000090020000900200009f
:10011800900200009002000090020000900200008f
:10012800900200009002000090020000900200007f
:10013800900200009002000090020000900200006f
:10014800900200009002000090020000900200005f
:10015800900200009002000090020000900200004f
:10016800900200009002000090020000900200003f
:1001780090020000900200005e040000900200005f
:10018800900200009002000090020000900200001f
:10019800900200009002000090020000900200000f
:1001a80090020000900200009002000090020000ff
:1001b80090020000900200009002000090020000ef
:1001c80090020000900200009002000090020000df
:1001d80090020000900200009002000090020000cf
:1001e80090020000900200009002000090020000bf
:0801f8009002000090020000db
:020000040000fa
:10020800900200009002000090020000900200009e
:10021800900200009002000090020000900200008e
:10022800900200009002000090020000900200007e
:10023800900200009002000090020000900200006e
:10024800900200009002000090020000900200005e
:10025800900200009002000090020000900200004e
:10026800900200009002000090020000900200003e
:10027800900200009002000090020000900200002e
:10028800900200009002000090020000900200001e
:10029800900200009002000090020000900200000e
:1002a80090020000900200009002000090020000fe
:1002b80090020000900200009002000090020000ee
:1002c80090020000900200009002000090020000de
:1002d80090020000900200009002000090020000ce
:1002e80090020000900200009002000090020000be
:1002f80090020000900200009002000090020000ae
:10030800900200009002000090020000900200009d
:10031800900200009002000090020000900200008d
:10032800900200009002000090020000900200007d
:10033800900200009002000090020000900200006d
:10034800900200009002000090020000900200005d
:10035800900200009002000090020000900200004d
:10036800900200009002000090020000900200003d
:1003780090020000900200005e040000900200005d
:10038800900200009002000090020000900200001d
:10039800900200009002000090020000900200000d
:1003a80090020000900200009002000090020000fd
:1003b80090020000900200009002000090020000ed
:1003c80090020000900200009002000090020000dd
:1003d80090020000900200009002000090020000cd
:1003e80090020000900200009002000090020000bd
:0803f8009002000090020000d9
:020000040000fa
:100400000f9b20000e7f24000e01880000000000da
:100410000c000700e073210001002000110007001c
:10042000000020000000e000020032000000020096
:10043000000000005a150200000000000040da0031
:100440000000fe004440a900a00c20000000e000d5
:100450000300320000002000a00188004440a800f2
:100460000000060091018800800078000000eb0089
:1004700015003700e280400032a0b4009101ba00bc
:10048000e280400032a0b4009102ba00e280400055
:1004900032a0b4000002eb00472bde00f507b200eb
:1004a000602ce10004003a000059eb008301e900f0
:1004b000fdff3e00040037006128e100010032002a
:1004c0000082eb00040007001101ba000200e00006
:1004d000e8ff3a00000006003159ba008301e90044
:1004e0000c0032002159ba008301e90008003200f3
:1004f0000400e00003003a00e280400032a0b400b3
:10050000f5ff370011d9ba008301e900faff3a007c
:100510008100e800e180400032a0b4000000060045
:100520000040da000000fe00800178000200370081
:1005300081597800040178000202e900e00f5100bf
:08054000fbff3a000000060079
:020000040000fa
:100548001201000000020000020000000008000084
:10055800d80400000a0000000001000001020000a9
:100568000001000009020000430000000201000031
:1005780000c0000032090000040000000001000073
:100588000202000001000000052400000010000025
:1005980001040000240200000205000024060000f7
:1005a8000001000005240000010000000107000010
:1005b8000581000003080000000200000904000093
:1005c80001000000020a000000000000000700000f
:1005d80005020000024000000000000007050000be
:1005e8008202000040000000000000000403000038
:1005f80009040000340300004d00000069000000f9
:1006080063000000720000006f000000630000003b
:100618006800000069000000700000002000000071
:10062800540000006500000063000000680000003e
:100638006e0000006f0000006c0000006f000000fa
:100648006700000079000000200000004900000059
:100658006e000000630000002e000000340300005c
:100668004300000044000000430000002000000098
:1006780052000000530000002d000000320000006e
:100688003300000032000000200000004500000098
:100698006d000000750000006c00000061000000a3
:1006a80074000000690000006f0000006e00000088
:1006b8002000000044000000650000006d000000fc
:1006c8006f000000b6820000fa820000fe8200007f
:0406d8003283000069
:020000040000fa
:1006dc000200fa009ec0a9000080eb007024880084
:1006ec000080eb00502488000000eb0050258800af
:1006fc00420020008000eb00c04a200087ff07006a
:10070c0020002000302588000000eb0040258800e8
:10071c008644a900f009200080248800f0092000fc
:10072c00602488008804a800008020004800de00b7
:10073c00c02488000040eb00004f78000800370010
:10074c009e4078000180fb00c200dd00008020008c
:10075c00008140006000b8000089be001e4fe80018
:10076c001e407800eb4f5000f5ff36009424a80093
:10077c000000eb00b024880094a4a9009424a900e4
:10078c000c00370080002000502488000040eb0053
:10079c00cce8b7000040eb00d2e8b700d3c8bf00ec
:1007ac0060406000d3e8b700d4c8bf006040600070
:1007bc00d4e8b7005024800068006000e00f5000bf
:1007cc00f0ff3a0010002000604788001000200065
:1007dc00704788000000eb00804788000000eb00a9
:1007ec00904788000000eb00e04688000040eb00da
:1007fc00004f78001b0037009e4078000180fb0002
:10080c0080004000208c2000008040008000eb0025
:10081c00010878009e4078000180fb0080004000b9
:10082c00c08b2000008040008000eb0001087800a5
:10083c001e4078008080fb00208e200080804000cd
:10084c000040eb00804878001e4078008080fb0060
:10085c00508e2000808040000040eb0080487800e3
:10086c001e4fe8001e407800e24f5000e2ff3600b9
:10087c008080200010468800d00020005025880081
:10088c00408f20001040880080c0b30000e8b70003
:10089c0040c8b30001e8b7000040eb00b4e8b70073
:1008ac000000eb00904588000080fa000000060074
:1008bc003600f800809fbe00829fbe00849fbe0061
:1008cc00869fbe003400f80000002000a0018800c4
:1008dc000200fa0090458000e10f50000b003a0036
:1008ec00a12480000004200000806000e00f500074
:1008fc0006003a000080eb00502488008c04a8000d
:10090c008c84a800200020009045880000248000e2
:10091c0070006000e00f50000700320010248000cf
:10092c0070006000e00f5000030032000001200056
:10093c00002488005c0407004024800062006000f2
:10094c00e00f5000020032008ec0a9009d0037005d
:10095c005024800061006000e00f50000a0032005b
:10096c006024800061006000e00f5000060032003f
:10097c0057ff07009ec0a80040002000904588004b
:10098c00100020005024880050248000700060006b
:10099c00e00f5000070032006024800070006000ff
:1009ac00e00f500003003200330407000001200068
:1009bc00502488005024800064006000e00f500038
:1009cc00140032006024800064006000e00f5000ce
:1009dc0004003200120020008000eb0030072000e1
:1009ec00c50807004000200050248800e8c8bf005c
:1009fc00e04f500003003200e8c8bf000040e9009f
:100a0c00e8e8b700e8c8bf00e04f500001003a002a
:100a1c009d01070051248000000820000080600028
:100a2c00e00f500006003200612480000008200016
:100a3c0000806000e00f500001003200f703070057
:100a4c005024800062006000e00f50000c00320067
:100a5c006024800062006000e00f5000080032004b
:100a6c00120020008000eb00f0ff2700a208070016
:100a7c000080eb00702488002000200050248800a7
:100a8c0090458000e30f500002003e008ec0a9008c
:100a9c004c0037006024800068006000e00f5000bc
:100aac00470032000040eb00004f78003f00370059
:100abc005024800068006000e00f50003f003200be
:100acc009024800000407800dee8b700dec8bf004c
:100adc000080fb004400de0000407800dfe8b70037
:100aec008000200050248800dec8bf0068406000f1
:100afc00e04f500012003a00dfc8bf000081fb003d
:100b0c008080fb00508e20000080400090407800d8
:100b1c0061c060000004a20061406000518e2000a2
:100b2c00810141006140600013417800e1cfb300c6
:100b3c008140610000c070008049780011003700ce
:100b4c00dfc8bf000081fb008080fb00208e2000ee
:100b5c00008040009040780061c060000004a2005a
:100b6c0061406000218e20008101410061406000e5
:100b7c0013417800e1cfb3008140610000c07000e8
:100b8c0080497800dfc8bf00e04f500002003a00f7
:100b9c00d1030700040037000001eb00e18d2000b9
:100bac0020072000540807001e4fe8001e40780064
:100bbc00e34f5000beff360001003700000000007c
:100bcc008ec0a9000080fa003400f9004f03be006b
:100bdc004f02be004f01be004f00be003600f900b0
:100bec00004006000400fa002047980031479800a6
:100bfc003e4090000080fb0068006000e00f500059
:100c0c00030032008040eb002e4090007a01070078
:100c1c003e4090000080fb0064006000e00f50003c
:100c2c000300320011c0b3002e4090007201070087
:100c3c00a14a20002e4090000080fb0000004000e4
:100c4c00008f40001e007800be40900001487800e4
:100c5c000080fa00000006000800fa002047980007
:100c6c003147980022079800634798003e40900057
:100c7c00e04f5000070032002e4090000080fb0037
:100c8c0080004000208c200000804000100f780075
:100c9c00060037002e4090000080fb0080004000d2
:100cac00c08b200000804000100f78001e007800e0
:100cbc00e00f500002003a000000eb00300037005b
:100ccc00ae0090001e007800110098001e00780005
:100cdc00ee409000014878001e0078001040900013
:100cec000044b2009e007800904098001e007800ee
:100cfc009040900080c8b30000c070009e00780047
:100d0c00904098003e409000e04f50000e003200a2
:100d1c00218c20002e4090000080fb000000400041
:100d2c0080804000228c20002e4090000080fb0030
:100d3c000000400000004100104078000024a20098
:100d4c00804878000d003700c18b20002e409000a9
:100d5c000080fb000000400080804000c28b20001f
:100d6c002e4090000080fb0000004000000041007d
:100d7c00104078000024a200804878001e00780003
:100d8c000080fa00000006000400fa0020479800da
:100d9c00314798002e409000e04f50000d003a0073
:100dac00d145800080c0b30080487800d0458000d9
:100dbc00418f200011009800d1458000c0c8b300bd
:100dcc00904098001146800040c8b30090409800b5
:100ddc00220037002e4090000080fb0000004000f5
:100dec00800078003e4090000080fb0000804000b6
:100dfc004300dd008000780000802000008f400060
:100e0c001e0078009040900040c8b30000c07000f5
:100e1c009e007800904098002e4090000080fb00cf
:100e2c0000004000800078003e4090000080fb00f5
:100e3c00008040004300dd00e40040000080200002
:100e4c00008f40001e0078009040900040c8b30016
:100e5c0000c070009e007800904098000080fa005e
:100e6c00000006000200fa00004f7800a124800068
:100e7c000002200000806000e00f50005b00320098
:100e8c009e4078000180fb0080004000208c2000f8
:100e9c0000804000100278001e4178000280fb00a8
:100eac0080004000208c2000008040001000780062
:100ebc001001be0000042000010020008202780016
:100ecc0003017800800178000100780083826200c1
:100edc000000610001002000c000dd0000002000c7
:100eec000001be006128b800000171008181710011
:100efc00028abe009e4178000380fb008000400007
:100f0c00208c200000804000100278009e40780069
:100f1c000180fb0080004000208c200000804000fd
:100f2c00100078001001be00000420000100200019
:100f3c000000690081806900008abe00218c2000bd
:100f4c001e4178000280fb000000400080804000c1
:100f5c00228c20009e4178000380fb0000004000a2
:100f6c0000004100104078000024a2008048780066
:100f7c009e4078000180fb0080004000208c200007
:100f8c0000804000900078001e4178000280fb0039
:100f9c0000014000208c200000004100100078006f
:100fac00104090000044b200904098009e417800a0
:100fbc000380fb0080004000208c2000008040005b
:100fcc00100178009e4078000180fb0080004000fa
:100fdc00208c200000804000100078009040900091
:100fec0000c4b30000c06800104198000080fa00f3
:100ffc00000006000000fa000000eb00a0248800ae
:10100c000000eb00602488000000eb009045880095
:10101c000080fa00000006000000fa0090458000f5
:10102c00e00f500016003a000000eb00a0248800ee
:10103c000000eb0060248800200020003025880090
:10104c000000eb00402588008644a900f009200030
:10105c0080248800f0092000602488009ec0a8002d
:10106c00010037009404a800a024800061006000f7
:10107c00e00f5000fbff320010002000904588006c
:10108c000080fa00000006000000fa0060478000b3
:10109c00e00f50002a003a00100020006047880042
:1010ac0070478000e00f500025003a00100020002f
:1010bc0070478800c9c8bf00e24f500007003a00d3
:1010cc00114680000040eb008048780011468000fb
:1010dc0080ccb3009040980019003700c9c8bf00fd
:1010ec00e14f500016003a000000eb00004788006a
:1010fc00c145800080c0b30080487800c0458000a6
:10110c00418f200011009800c145800040c8b300f9
:10111c00904098001000200000478800d1458000c6
:10112c0080c0b30080487800d0458000418f2000fb
:10113c0011009800d145800000c8b3009040980081
:10114c000080fa00000006000000fa000000eb002e
:10115c00804788000000eb0090478800c9c8bf009a
:10116c00e24f50000a003a00d145800080c0b30025
:10117c0080487800d0458000c18f20001100980075
:10118c00d145800080ccb300904098001800370007
:10119c00fac8bf008080fb00fbc8bf000080fb00ca
:1011ac004800dd000100700080007800704680006f
:1011bc00808f500007003100fac8bf008080fb0010
:1011cc00fbc8bf000080fb004800dd000100700080
:1011dc00704688008700070010468000c18f2000f1
:1011ec00110098001146800080ccb300904098000c
:1011fc000080fa00000006000400fa002047980066
:10120c003147980000802000000f78002e4090009d
:10121c000080fb0000004000800078003e40900001
:10122c000080fb00008040004300dd001e0f4000ea
:10123c001e00780010017800f1ff2700810061008a
:10124c00010878003e409000e04f500007003a0043
:10125c002e4090000080fb0080004000c08b2000de
:10126c00008040001e087800060037002e409000d9
:10127c000080fb0080004000208c2000008040009b
:10128c001e0878001e00780010017800f1ff2b007a
:10129c0081006100010878009e00780064804000a5
:1012ac001001780001002400810071000108780011
:1012bc000080fa00000006000000fa0094a4a900c7
:1012cc00614680000008200000806000e00f5000a4
:1012dc001e003a00218d20009140780000c8b30018
:1012ec0000c06000e04f50000b00320020c0b30083
:1012fc00c9e8b70090478000e00f500001003a00a9
:10130c0091ff07000000eb00704788000000eb0025
:10131c006047880035003700d145800080c0b3009d
:10132c0080487800d0458000418f20001100980043
:10133c00d1458000c0c8b300904098001146800091
:10134c0040c8b3009040980028003700418f20001f
:10135c009140780000c8b30000c06000e04f50001e
:10136c000f00320010c0b300c9e8b70080478000fe
:10137c00e00f500001003a0073ff07000000eb0083
:10138c00704788000000eb006047880050478000e1
:10139c00e00f500015003a003bff07001300370028
:1013ac0020c0b300c9e8b700d145800080c0b300ad
:1013bc0080487800d0458000418f200011009800b3
:1013cc00d145800040c8b300904098000000eb006d
:1013dc00704788000000eb00604788005047800091
:1013ec00e00f500001003a0027ff07000080fa00d0
:1013fc00000006000200fa0080c0b300004f780025
:10140c0070468000e70f50000d003e0070468000d3
:10141c00004f7800c8c8bf00e04f500003003a00ee
:10142c0010c0b300c8e8b70005003700c8c8bf003b
:10143c00e14f500002003a0020c0b300c8e8b700ea
:10144c00714680001e4178000280fb000080500035
:10145c0070468800104680001e487800c08f20001f
:10146c00c04688006046800061006000e00f5000bc
:10147c0017003a0009003700c24680005146800030
:10148c0011407800004978000200e800c04688004e
:10149c000100e800504688001e4fe9001e4078000d
:1014ac00e04f5000f4ff3a000c003700c2468000b9
:1014bc005146800011407800004978000200e80095
:1014cc00c04688000100e800504688001e4fe90025
:1014dc001e407800e04f5000f4ff3a000080fa0004
:1014ec00000006000200fa00c0458000104f780092
:1014fc001e4078008080fb00d3c8bf000081fb0039
:10150c00d4c8bf000080fb004800dd000200700062
:10151c00808f500007003600d3c8bf008080fb00ce
:10152c00d4c8bf000080fb004800dd000100700043
:10153c00004f7800d3c8bf008080fb00d4c8bf0028
:10154c000080fb004800dd00010070008000780086
:10155c001e4178000280fb0080805000f00f2000bc
:10156c0000816000d3c8bf00604060000240700082
:10157c00d3e8b700c808de00d4c8bf0060406000e4
:10158c0001407000d4e8b7000040eb001047980011
:10159c001c003700d0c8bf008080fb00d1c8bf0042
:1015ac000080fb004800dd00010070008000780026
:1015bc001e4090000081fb00c08f20000000410005
:1015cc0010407800804878008100e800f00f20007f
:1015dc0000816000d0c8bf00604060000240700015
:1015ec00d0e8b700c808de00d1c8bf00604060007a
:1015fc0001407000d1e8b7001e4090000040e800a8
:10160c00104798001e4090009e4f5000e1ff39009b
:10161c00d3c8bf008080fb00d4c8bf000080fb0093
:10162c004800dd0001007000e00f50001400320093
:10163c00d145800080c0b30080487800d045800040
:10164c00c18f200011009800c045800090007800e8
:10165c000000240000806000e00f500004003a00fd
:10166c00d145800080ccb300904098002100370019
:10167c00d145800080c8b300904098001d00370011
:10168c00d145800080c0b30080487800d0458000f0
:10169c00418f200011009800d145800040c8b30054
:1016ac0090409800d5c8bf008080fb00d6c8bf0012
:1016bc000080fb004800dd0001007000e00f5000ce
:1016cc0007003200d5c8bf008080fb00d6c8bf0021
:1016dc000080fb004800dd000100700000000100ec
:1016ec00d2e8a90050478000e00f500001003a00fa
:1016fc0065fe07000080fa00000006000200fa00f8
:10170c00cce8a800420020008000eb00c04a20007a
:10171c0082fb0700020320008000eb000080200009
:10172c007efb07009424a8000040eb00004f7800db
:10173c000d0037001e4078008080fb00208e2000ba
:10174c00808040000040eb00804878001e4078000c
:10175c008080fb00508e2000808040000040eb0019
:10176c00804878001e4fe8001e407800e24f500081
:10177c00f0ff3600220020008000eb00508b200090
:10178c0066fb07009424a900808020001046880086
:10179c0000802000c0458800c0458000d0458800ee
:1017ac00f6c8bf00b4e8b700b4c8bf00e04f5000a3
:1017bc0003003a0000012000904588000600370025
:1017cc0012002000418b2000100020004a05070069
:1017dc0000022000904588000080fa0000000600fe
:1017ec000000fa00418f20009140780000c8b3003f
:1017fc0080cf500036003a0000ccb300cce8b700e4
:10180c00f7c8bf000080fb00e20f50000900320057
:10181c00e30f500018003200e10f500029003a008d
:10182c00402a28005046880020012000704688007d
:10183c0027003700f6c8bf000080fb000000400006
:10184c00800078006036280000804000100078008e
:10185c0050468800504680000080e8001040780018
:10186c00cee8b7005046800063004000104078007e
:10187c00cfe8b70016003700f6c8bf00e24f5000a3
:10188c000d003e00f6c8bf000080fb0000004000c9
:10189c00800078008036280000804000100078001e
:1018ac005046880050468000104078000080fb00b5
:1018bc0070468800060037000040eb00cce8b7000b
:1018cc00030037000040eb00cce8b700000000003c
:1018dc000080fa00000006000200fa000040eb0055
:1018ec00fce8b7000040eb00fde8b700f4c8bf000f
:1018fc007f4060000080fb00e10f50000f003200c1
:10190c00e20f50000f003200e00f500037003a0099
:10191c00cce8a800fcc8bf000004a000fce8b7009d
:10192c00d0468000e10f50002b003a00fcc8bf00ed
:10193c000014a000fce8b7002c003700cce8a8008d
:10194c002a003700cce8a800818f20009140780055
:10195c0000c8b30000c06000e04f500008003a001f
:10196c00f8c8bf006f4060000080fb0080004000a2
:10197c00c08b200000804000100f7800070037005b
:10198c00f8c8bf006f4060000080fb008000400082
:10199c00208c200000804000100f78001e00780082
:1019ac00900078000000280000806000e00f5000dc
:1019bc000b0032001e0078009000780000402000e0
:1019cc0000806000e00f50000700320010c0b30030
:1019dc00fce8b700050037000000000003003700ea
:1019ec00000000000100370000000000614680008c
:1019fc000008200000806000e00f5000050032005d
:101a0c00c08f200050468800cc08a80020c0b3002e
:101a1c00cee8b7000080fa00000006000000fa00d3
:101a2c005025800062006000e00f50000e00320074
:101a3c00c04580009040900000c8b30080cf50009b
:101a4c0008003a00104680009040900040c8b30057
:101a5c0080cf500003003a00c1458000c0c8b300dd
:101a6c0090409800aa24a900000820005024880067
:101a7c000080fa00000006000000fa008284a80032
:101a8c00000120005024880010002000e04688004f
:101a9c000001eb008000eb005007200096040700cb
:101aac000080fa00000006000000fa000000eb00c5
:101abc00e04688000001eb008000eb0040072000ae
:101acc008d0407008284a9000001200000248800f6
:101adc000080fa00000006000200fa00d0c2b30039
:101aec00e8e8b700dec8bf008080fb00b0ff2f0025
:101afc0000806000e00f500031003a00dec8bf00eb
:101b0c000080fb004200de00004078000080fb00fb
:101b1c00c200dd000080200000804000c04588002d
:101b2c00c0458000d0458800a18b2000a08b2000f0
:101b3c00104078000024a20080487800c045800046
:101b4c009000780000c023008080600000402300db
:101b5c00808f500018003a000040eb00004f7800d6
:101b6c000d0037001e4078008080fb00408f200065
:101b7c0080804000c045800010009000104078002c
:101b8c0080487800c0458000900090008100e800fb
:101b9c00110098001e4fe8001e407800e74f5000df
:101bac00f0ff3600c0458000418f200011009800e6
:101bbc000c0007000900370044000700070037003d
:101bcc00dec8bf008080fb00b0ff2f0000806000eb
:101bdc00e80f500001003a00550007000080fa00a1
:101bec00000006000000fa000040eb00c8e8b70057
:101bfc000000eb00504788000000eb008047880095
:101c0c000000eb00904788000000eb0000478800c4
:101c1c000040eb00c9e8b700114680001046800078
:101c2c00104090000074a10090409800218c20007e
:101c3c00208c2000104078000024a20080487800fe
:101c4c001146800010468000104090000074a100e6
:101c5c0090409800218c2000208c200010407800af
:101c6c000024a20080487800d1458000d045800037
:101c7c00104090000074a100904098000040eb00d0
:101c8c00cce8b7000000eb00704688000040eb0089
:101c9c00d2e8b700d3c8bf0060406000d3e8b700fb
:101cac00d4c8bf0060406000d4e8b7006c000700e7
:101cbc000001eb008000eb00300020000e04070058
:101ccc007dfd07000080fa00000006000000fa000d
:101cdc00c9c8bf00e24f500002003a0001fe0700e5
:101cec00110037000040eb00c9e8b7000047800046
:101cfc00e00f50000a003a00d145800080c0b300cc
:101d0c0080487800d0458000418f20001100980059
:101d1c00d1458000c0c8b300904098000200370045
:101d2c000000eb00004788000080fa00000006006d
:101d3c000200fa0010468000100078004e00de0011
:101d4c0061406000004f7800218c2000208c200026
:101d5c00104078000024a200804878009045800054
:101d6c00e80f50000b003a00f6c8bf000080fb00e3
:101d7c00b0248800b0248000e00f50000300320033
:101d8c000001200090458800020037004000200030
:101d9c0090458800c9c8bf00e14f500016003a00ba
:101dac0010468000c18f20001100980091fd0700a3
:101dbc00c8c8bf00e24f500004003a001146800032
:101dcc0040c8b30090409800230037001e407800b4
:101ddc00e04f500004003a001146800080ccb30064
:101dec00904098001c0037001146800080c8b3005a
:101dfc009040980018003700218d20009140780009
:101e0c0000c8b30000c06000e04f5000100032006a
:101e1c00d5c8bf008080fb00d6c8bf000080fb0087
:101e2c004800dd0001007000e00f50000700320098
:101e3c00d5c8bf008080fb00d6c8bf000080fb0067
:101e4c004800dd000100700000000100d2e8a9008c
:101e5c000040eb00c9e8b7000080fa000000060063
:101e6c000000fa00f4c8bf000046b200e04f50007a
:101e7c003f003a00f5c8bf000080fb00cf80de00b9
:101e8c00b200200003002000820f5000838f580006
:101e9c0039003e00006001001a0037001b003700bb
:101eac0037003700190037003500370006003700bf
:101ebc0009003700290037000b00370008003700f5
:101ecc00140037001d003700cce8a800800020006b
:101edc00904588002b00370041fe07002900370091
:101eec0006fe070027003700408b20005046880074
:101efc00cc08a80010c0b300cee8b700cce8a8000e
:101f0c002000370074fe07001e0037001f0007007a
:101f1c001c003700f8c8bf008080fb00508b2000ed
:101f2c000080400050468800cc08a80010c0b300c8
:101f3c00cee8b700cce8a80012003700cce8a80027
:101f4c00f8c8bf000081fb00f6c8bf00518b200011
:101f5c0081004100804878000a0037000001eb0046
:101f6c008000eb0020002000630307000500370011
:101f7c0000000000030037000000000001003700e3
:101f8c00000000000080fa00000006000600fa00c5
:101f9c00f6c8bf00e14f50000d003a00f4c8bf0076
:101fac007f406000e04f500009003a00cce8a800e8
:101fbc00f5c8bf00e34f500003003a0010002000aa
:101fcc00d0468800020037000000eb00d0468800a5
:101fdc00f6c8bf00e04f5000eb003a00f4c8bf0059
:101fec007f406000e24f5000e7003a00f8c8bf00a5
:101ffc006f406000e04f5000e3003200f8c8bf00b3
:10200c006f4060000080fb00e20f5000de003c00df
:10201c009145800000022000808f5000da003a00c9
:10202c00cce8a800818f20009140780000c8b30054
:10203c0000c06000e04f500010003a00f8c8bf002c
:10204c006f4060000080fb0080004000c08b2000cf
:10205c00008040001000780010079800f8c8bf00fe
:10206c006f4060008080fb00508e2000008040009c
:10207c0010407800404798000f003700f8c8bf00a8
:10208c006f4060000080fb0080004000208c20002e
:10209c00008040001000780010079800f8c8bf00be
:1020ac006f4060008080fb00208e2000008040008c
:1020bc0010407800404798004e409000614060000e
:1020cc00e04f500007003a000e81e8000e80e80057
:1020dc0090407800b0cfb30000c060000049780099
:1020ec00050037008e80e8000e80e8001040780074
:1020fc000024a00080487800818f20009140780057
:10210c0000c8b30000c06000e04f500009003a0066
:10211c00f8c8bf006f4060000080fb009e0090007c
:10212c0000014000c08b2000000041000108780035
:10213c0008003700f8c8bf006f4060000080fb004b
:10214c009e00900000014000208c20000000410007
:10215c0001087800f5c8bf00e34f500024003a0096
:10216c001e009000900078000000280000806000a5
:10217c00e00f500017003200818f20009140780052
:10218c0000c8b30000c06000e04f500009003a00e6
:10219c00f8c8bf006f4060008080fb00508e2000ac
:1021ac0080804000114078000014a0008048780026
:1021bc0008003700f8c8bf006f4060008080fb004b
:1021cc00208e200080804000114078000014a00078
:1021dc00804878001e0190001e00900090409000f6
:1021ec0040c8b30000c07000104198006600370072
:1021fc008e80e8000e80e800104078000024a200d9
:10220c00804878001e0090009000780000002800a4
:10221c0000806000e00f5000110032009e00900022
:10222c001e009000104090000074a1009040980097
:10223c001e0190001e0090009040900000c4b3005e
:10224c0000c07000104198001e0090002200200079
:10225c008000780050002000a7020700060037001d
:10226c001e0190001e0090009040900000c4b3002e
:10227c0000c07000104198008e80e8000e80e800cd
:10228c00104078000024a200804878004e40900056
:10229c0062406000e04f500006003a001e009000c3
:1022ac00900078000000280000806000e00f5000d3
:1022bc0024003200818f20009140780000c8b300c8
:1022cc0000c06000e04f50000a003a00f8c8bf00a0
:1022dc006f4060008080fb00508e20000081400029
:1022ec0092407800d0cfb30000c060000049780065
:1022fc0009003700f8c8bf006f4060008080fb0009
:10230c00208e20000081400092407800d0cfb30096
:10231c0000c06000004978009e0090001e009000f4
:10232c0010409000b043b200904098001e00900006
:10233c002200200080007800500020006e02070070
:10234c00050037009e0090001e0090001040900089
:10235c00b043b20090409800a14a2000f8c8bf00da
:10236c006f4060000080fb0000004000008f4000c8
:10237c001e00780090407800d0cfb30000c0600001
:10238c009e007800804878000080fa00000006006b
:10239c000000fa00f4c8bf007f406000e14f50001d
:1023ac0074003a00f4c8bf0002c6b300824060005b
:1023bc0000c2b30080cf500070003a00f8c8bf00d4
:1023cc00e04f500003003200f8c8bf00e14f50004e
:1023dc006c003a00f5c8bf000080fb00cf80de0027
:1023ec002202200003002000820f5000838f58002f
:1023fc0066003e0000600100220037002800370014
:10240c00640037006300370062003700610037005a
:10241c00600037005f0037005e0037005d0037005a
:10242c005c0037005b0037005a003700590037005a
:10243c00580037005700370056003700550037005a
:10244c00540037005300370052003700510037005a
:10245c00500037004f0037004e0037004d0037005a
:10246c004c0037004b0037004a003700490037005a
:10247c0048003700470037000d00370032003700a6
:10248c0038003700e0912000504688008000200082
:10249c0070468800cc08a800cce8a8003e003700a5
:1024ac00e091200050468800cce8a8003a003700a4
:1024bc00fac8bf008080fb00fbc8bf000080fb0097
:1024cc004800dd000100700080007800f00f200053
:1024dc0000816000d3c8bf00604060000240700003
:1024ec00d3e8b700c808de00d4c8bf006040600065
:1024fc0001407000d4e8b70041902000f00f20009c
:10250c0000816000d0c8bf006040600002407000d5
:10251c00d0e8b700c808de00d1c8bf00604060003a
:10252c0001407000d1e8b700d5c8bf006040600022
:10253c00d5e8b700d6c8bf0060406000d6e8b70049
:10254c00d2e8a800140037004090200050468800c4
:10255c00700020007046880010ccb300cce8b700a7
:10256c000d003700f6c8bf0018e9b700cce8a8008a
:10257c0009003700000000000700370000000000d1
:10258c0005003700000000000300370000000000c9
:10259c0001003700000000000080fa000000060077
:1025ac000000fa0000b02400010020002048880040
:1025bc00314888000040eb0008e9b7000040eb0010
:1025cc0009e9b70080c0b3000ae9b7000040eb008e
:1025dc000ce9b70051c1b30010c0b30081f907007a
:1025ec00d1c1b30020c0b3007ef9070003c4b3000f
:1025fc00629620008040eb0020c0b30096f90700e3
:10260c00a04888000000eb00b04888000040eb00b8
:10261c000de9b7000080fa00000006000600fa0081
:10262c00000f780011079800220798001e00780010
:10263c00e50f500014003a00a04880009e00900066
:10264c00808f500006003a0003c4b300629620004d
:10265c008040eb0020c0b3007ff90700a048880041
:10266c00b04880009e009000808f500004003a001b
:10267c000040eb000de9b7000040eb0012e9b70099
:10268c0010002000010037000000eb000080fa0071
:10269c00000006000400fa00000f780021479800a3
:1026ac000040eb000ce9b700a0488000e00f5000a0
:1026bc0006003200a048800090007800000028003e
:1026cc0000806000e00f500021003a00a04880001c
:1026dc00904078002e40900080cf500003003100d5
:1026ec00a048800090407800214798000040eb0003
:1026fc000ce9b7000b0037000cc9bf000080fb00d1
:10270c009e0040000cc9bf000080fb0062962000b8
:10271c0062407800804878000cc9bf000040e80097
:10272c000ce9b700c1902000914078002e40900039
:10273c0080cf5000f0ff390003c4b3006296200034
:10274c008040eb0020c0b30043f90700a04888008c
:10275c000cc9bf000080fa00000006000400fa005b
:10276c00000f7800214798009ec0a9000dc9bf003a
:10277c00e04f500008003a001e00780070488800b6
:10278c002e40900012e9b70010c0b30013e9b70057
:10279c0010c0b3000de9b7009ec0a8000080fa007d
:1027ac00000006000600fa00200798009ec0a90051
:1027bc000dc9bf00e04f5000020032009ec0a800bf
:1027cc001e0037000040eb00004f78002e009000f8
:1027dc00100798001e4fe8001e407800e14f4000a3
:1027ec000c0032001e009000104078000080fb00ae
:1027fc000000ea004f00de00004078009e009000d0
:10280c008100e80011079800e04f5000f1ff3a00fa
:10281c0001003700000000002e0090007048880076
:10282c001e40780012e9b70010c0b30013e9b700de
:10283c0010c0b3000de9b7009ec0a8000080fa00dc
:10284c00000006000600fa00200798009ec0a900b0
:10285c000dc9bf00e04f5000020032009ec0a8001e
:10286c001e0037000040eb00004f78002e00900057
:10287c00100798001e4fe8001e407800e14f400002
:10288c000c0032001e009000104078000080fb000d
:10289c000000ea004f00de00004078009e0090002f
:1028ac008100e80011079800e04f5000f1ff3a005a
:1028bc0001003700000000002e00900070488800d6
:1028cc001e40780012e9b7000040eb0013e9b70096
:1028dc0010c0b3000de9b7009ec0a8000080fa003c
:1028ec00000006000200fa009ec0a900b04880005b
:1028fc00e00f500008003200b048800090007800d3
:10290c000000280000806000e00f50000200320040
:10291c009ec0a800620037000dc9bf00e34f5000f5
:10292c0002003a000040eb000de9b7000dc9bf00f2
:10293c00e04f500002003a009ec0a800580037003b
:10294c000dc9bf00e24f500009003a008041eb0076
:10295c000001eb0011c0b30020c0b300bef80700ab
:10296c00b048880030c0b3000de9b7004b00370009
:10297c000dc9bf00e14f500048003a0021912000e2
:10298c009140780000c4b30080cf500003003600a3
:10299c0000c4b300004f78000200370012c9bf001a
:1029ac00004f780012c9bf001e40500012e9b7005a
:1029bc0060922000804888001e40780010479800e4
:1029cc0013c9bf00e04f50001f003a000d00370044
:1029dc008148800070488000104078008048780062
:1029ec00804880000000e800804888007048800023
:1029fc000000e800704888001e4090000040e9008c
:102a0c00104798001e409000e04f5000f0ff3a0035
:102a1c00100037008148800070488000104078001a
:102a2c0080487800804880000000e80080488800da
:102a3c00704880000000e800704888001e4090003c
:102a4c000040e900104798001e409000e04f5000f5
:102a5c00f0ff3a0012c9bf00e04f500009003a00e5
:102a6c0000c4b3009e40780080cf500003003a00b1
:102a7c0020c0b3000de9b7000200370030c0b3002e
:102a8c000de9b7009e4178006292200011c0b3009e
:102a9c0020c0b30070f80700b04888009ec0a800a2
:102aac000080fa00000006000000fa000a0007008f
:102abc002024800068006000e00f50000400320009
:102acc0090458000e00f500001003a0052f90700d9
:102adc000b000700f6ff37000000fa000080eb0047
:102aec006019880003000700f9f607000080fa005f
:102afc00000006000000fa000080fa00000006004a
:102b0c000200fa0090458000ff0f50003c00360098
:102b1c004024800062006000e00f50003a003a0050
:102b2c000dc9bf00e04f500033003a0001c4b300a0
:102b3c0000872000d7fe0700104798001e40900029
:102b4c00e04f50002c0032000040eb00004f7800aa
:102b5c00220037001e4078008080fb000087200098
:102b6c0000804000104078000000fb00ea0f50008d
:102b7c0002003200ed0f50000b003a001e407800ae
:102b8c000081fb001e4078008080fb000087200045
:102b9c00008040001040780001832000810041003b
:102bac00804878000c0037001e4078000081fb0044
:102bbc001e4078008080fb000087200000804000d1
:102bcc00104078000040e8000183200081004100a3
:102bdc0080487800000000001e4fe8001e40900066
:102bec009e40780080cf5000daff39009e40900064
:102bfc0000832000d9fe07003aff070003003700ce
:102c0c000000000001003700000000000080fa0006
:102c1c00000006000000fa006b0007000080fa00bc
:102c2c00000006000000fa000080fa000000060018
:102c3c000000fa000080fa00000006000000fa0014
:102c4c000080fa00000006000000fa00d0fd07002a
:102c5c000080fa00000006000000fa000080fa0074
:102c6c00000006000000fa004dfe07000080fa008c
:102c7c00000006000000fa00d0468000e10f500072
:102c8c001b003a00e0468000e10f500018003a00ab
:102c9c009ec0a900e3ff07008824a9000000eb00f8
:102cac00e046880000e120008045880080458000d7
:102cbc000000e9008045880080458000e00f50004e
:102ccc00faff3a009444a8008070200080458800e8
:102cdc00804580000000e900804588008045800028
:102cec00e00f5000faff3a009444a9009ec0a800df
:102cfc000080fa00000006000600fa00000f7800c1
:102d0c0011079800220798001e0078002107200068
:102d1c00810f50002800320021072000810f500045
:102d2c000a003c00e20f50001d003200e20f500080
:102d3c0003003c00e10f5000170032001f00370069
:102d4c00e30f5000180032001c0037004107200030
:102d5c00810f50000e00320041072000810f5000ff
:102d6c000700350051072000810f5000060032008b
:102d7c00f1ff2700810f50000d0032000f003700cb
:102d8c00abff07000d003700a2ff07000b00370058
:102d9c00a4ff070009003700b2ff07000700370047
:102dac00adff070005003700a7ff07000300370041
:102dbc00a2ff0700010037000000000010002000f7
:102dcc000080fa00000006000800fa008024800051
:102ddc00000f7800602480001007980010248000f9
:102dec0020079800f00480004600de00614060007f
:102dfc00604798000000eb00802488000000eb0086
:102e0c00602488000000eb00102488008ec0a9000c
:102e1c008284a80000012000002488009ec0a80025
:102e2c000040fe006e409000614060000080fb009e
:102e3c00610060004600dd00f2048000f1fb2f0011
:102e4c008100610000807000f00488001e00780092
:102e5c00802488001e009000602488002e009000c2
:102e6c0010248800100020000080fa0000000600ea
:020000040000fa
:102e7c00300800008200000000000000b2080000d2
:102e8c0052000000000000000008000030000000ac
:102e9c0000000000260900008a000000000000006d
:102eac0004090000220000000000000000000000e7
:020000040000fa
:020000040005f5
:0457f8009e230000ec
:020000040000fa
:020000040005f5
:0457fc007f3e0000ec
:00000001FF
