:020000040000fa
:080000000002040000000000f2
:020000040000fa
:1000080090020000900200009002000090020000a0
:100018009002000090020000900200009002000090
:100028009002000090020000900200009002000080
:100038009002000090020000900200009002000070
:100048009002000090020000900200009002000060
:100058009002000090020000900200009002000050
:100068009002000090020000900200009002000040
:100078009002000090020000900200009002000030
:100088009002000090020000900200009002000020
:100098009002000090020000900200009002000010
:1000a8009002000090020000900200009002000000
:1000b80090020000900200009002000090020000f0
:1000c80090020000900200009002000090020000e0
:1000d80090020000900200009002000090020000d0
:1000e80090020000900200009002000090020000c0
:1000f80090020000900200009002000090020000b0
:10010800900200009002000090020000900200009f
:10011800900200009002000090020000900200008f
:10012800900200009002000090020000900200007f
:10013800900200009002000090020000900200006f
:10014800900200009002000090020000900200005f
:10015800900200009002000090020000900200004f
:10016800900200009002000090020000900200003f
:100178009002000090020000740400009002000049
:10018800900200009002000090020000900200001f
:10019800900200009002000090020000900200000f
:1001a80090020000900200009002000090020000ff
:1001b80090020000900200009002000090020000ef
:1001c80090020000900200009002000090020000df
:1001d80090020000900200009002000090020000cf
:1001e80090020000900200009002000090020000bf
:0801f8009002000090020000db
:020000040000fa
:10020800900200009002000090020000900200009e
:10021800900200009002000090020000900200008e
:10022800900200009002000090020000900200007e
:10023800900200009002000090020000900200006e
:10024800900200009002000090020000900200005e
:10025800900200009002000090020000900200004e
:10026800900200009002000090020000900200003e
:10027800900200009002000090020000900200002e
:10028800900200009002000090020000900200001e
:10029800900200009002000090020000900200000e
:1002a80090020000900200009002000090020000fe
:1002b80090020000900200009002000090020000ee
:1002c80090020000900200009002000090020000de
:1002d80090020000900200009002000090020000ce
:1002e80090020000900200009002000090020000be
:1002f80090020000900200009002000090020000ae
:10030800900200009002000090020000900200009d
:10031800900200009002000090020000900200008d
:10032800900200009002000090020000900200007d
:10033800900200009002000090020000900200006d
:10034800900200009002000090020000900200005d
:10035800900200009002000090020000900200004d
:10036800900200009002000090020000900200003d
:100378009002000090020000740400009002000047
:10038800900200009002000090020000900200001d
:10039800900200009002000090020000900200000d
:1003a80090020000900200009002000090020000fd
:1003b80090020000900200009002000090020000ed
:1003c80090020000900200009002000090020000dd
:1003d80090020000900200009002000090020000cd
:1003e80090020000900200009002000090020000bd
:0803f8009002000090020000d9
:020000040000fa
:100400000fa320000e7f24000e01880000000000d2
:100410000c000700407a21000100200011000700b5
:10042000000020000000e000020032000000020096
:100430000000000070150200000000000040da001b
:100440000000fe004440a900000e20000000e00073
:100450000300320000002000a00188004440a800f2
:100460000000060091018800800078000000eb0089
:1004700015003700e280400032a0b4009101ba00bc
:10048000e280400032a0b4009102ba00e280400055
:1004900032a0b4000002eb00472bde00f507b200eb
:1004a000602ce10004003a000059eb008301e900f0
:1004b000fdff3e00040037006128e100010032002a
:1004c0000082eb00040007001101ba000200e00006
:1004d000e8ff3a00000006003159ba008301e90044
:1004e0000c0032002159ba008301e90008003200f3
:1004f0000400e00003003a00e280400032a0b400b3
:10050000f5ff370011d9ba008301e900faff3a007c
:100510008100e800e180400032a0b4000000060045
:100520000040da000000fe00800178000200370081
:1005300081597800040178000202e900e00f5100bf
:08054000fbff3a000000060079
:020000040000fa
:100548001201000000020000020000000008000084
:10055800d80400000a0000000001000001020000a9
:100568000001000009020000430000000201000031
:1005780000c0000032090000040000000001000073
:100588000202000001000000052400000010000025
:1005980001040000240200000205000024060000f7
:1005a8000001000005240000010000000107000010
:1005b8000581000003080000000200000904000093
:1005c80001000000020a000000000000000700000f
:1005d80005020000024000000000000007050000be
:1005e8008202000040000000000000000403000038
:1005f80009040000340300004d00000069000000f9
:1006080063000000720000006f000000630000003b
:100618006800000069000000700000002000000071
:10062800540000006500000063000000680000003e
:100638006e0000006f0000006c0000006f000000fa
:100648006700000079000000200000004900000059
:100658006e000000630000002e000000340300005c
:100668004300000044000000430000002000000098
:1006780052000000530000002d000000320000006e
:100688003300000032000000200000004500000098
:100698006d000000750000006c00000061000000a3
:1006a80074000000690000006f0000006e00000088
:1006b8002000000044000000650000006d000000fc
:1006c8006f000000b6820000fa820000fe8200007f
:1006d8003283000042750000747400006f6e0000e1
:1006e800205000007265000073730000656400000c
:1006f800202d00002d2000000d0a00000000000041
:020000040000fa
:100708000200fa009ec0a9000080eb007024880057
:100718000080eb00502488000000eb005025880082
:10072800420020008000eb00c04a20007cff070048
:1007380020002000302588000000eb0040258800bc
:100748008644a900f009200080248800f0092000d0
:10075800602488008804a80000a020004800de006b
:10076800c02488000040eb00004f780008003700e4
:100778009e4078000180fb00c200dd0000a0200040
:10078800008140006000b8000089be001e4fe800ec
:100798001e407800eb4f5000f5ff36009424a80067
:1007a8000000eb00b024880094a4a9009424a900b8
:1007b8000c00370080002000502488000040eb0027
:1007c800a2e8b7000040eb00a8e8b700a9c8bf003e
:1007d80060406000a9e8b700aac8bf006040600098
:1007e800aae8b7005024800068006000e00f5000bd
:1007f800f0ff3a001000200010468800100020008a
:10080800204688000000eb00304688000000eb001e
:10081800404688000000eb00904588000040eb004f
:10082800004f78001b0037009e4078000180fb00d5
:100838008000400080892000008040008000eb009c
:10084800010878009e4078000180fb00800040008d
:1008580020892000008040008000eb00010878001b
:100868001e4078008080fb00808b20008080400044
:100878000040eb00804878001e4078008080fb0034
:10088800b08b2000808040000040eb00804878005a
:100898001e4fe8001e407800e24f5000e2ff36008d
:1008a80080a02000c0448800d00020005025880087
:1008b800a08c20001050880080c0b30000eab70068
:1008c80040c8b30001eab7000040eb008ae8b7006f
:1008d8000000eb00404488000080fa000000060099
:1008e8003600f800809fbe00829fbe00849fbe0035
:1008f800869fbe003400f80000002000a001880098
:100908000200fa0040448000e10f50000b003a005a
:10091800a12480000004200000806000e00f500047
:1009280006003a000080eb00502488008c04a800e0
:100938008c84a80020002000404488000024800007
:1009480070006000e00f50000700320010248000a3
:1009580070006000e00f500003003200000120002a
:10096800002488005c0407004024800062006000c6
:10097800e00f5000020032008ec0a9009d00370031
:100988005024800061006000e00f50000a0032002f
:100998006024800061006000e00f50000600320013
:1009a80057ff07009ec0a800400020004044880070
:1009b800100020005024880050248000700060003f
:1009c800e00f5000070032006024800070006000d3
:1009d800e00f50000300320033040700000120003c
:1009e800502488005024800064006000e00f50000c
:1009f800140032006024800064006000e00f5000a2
:100a080004003200120020008000eb0030072000b4
:100a1800ed0807004000200050248800bec8bf0031
:100a2800e04f500003003200bec8bf000040e9009c
:100a3800bee8b700bec8bf00e04f500001003a0052
:100a48009d010700512480000008200000806000fc
:100a5800e00f5000060032006124800000082000ea
:100a680000806000e00f500001003200f70307002b
:100a78005024800062006000e00f50000c0032003b
:100a88006024800062006000e00f5000080032001f
:100a9800120020008000eb00f0ff2700ca080700c2
:100aa8000080eb007024880020002000502488007b
:100ab80040448000e30f500002003e008ec0a900b1
:100ac8004c0037006024800068006000e00f500090
:100ad800470032000040eb00004f78003f0037002d
:100ae8005024800068006000e00f50003f00320092
:100af8009024800000407800b4e8b700b4c8bf0074
:100b08000080fb004400de0000407800b5e8b70034
:100b18008000200050248800b4c8bf0068406000ee
:100b2800e04f500012003a00b5c8bf000081fb003a
:100b38008080fb00b08b200000804000904078004f
:100b480061c060000004a20061406000b18b200019
:100b5800810141006140600013417800e1cfb3009a
:100b68008140610000c070008049780011003700a2
:100b7800b5c8bf000081fb008080fb00808b20008f
:100b8800008040009040780061c060000004a2002e
:100b980061406000818b200081014100614060005c
:100ba80013417800e1cfb3008140610000c07000bc
:100bb80080497800b5c8bf00e04f500002003a00f5
:100bc800d1030700040037000001eb00418b20002f
:100bd800200720007c0807001e4fe8001e40780010
:100be800e34f5000beff3600010037000000000050
:100bf8008ec0a9000080fa003400f9004f03be003f
:100c08004f02be004f01be004f00be003600f90083
:100c1800004006000400fa00204798003147980079
:100c28003e4090000080fb0068006000e00f50002c
:100c3800030032008040eb002e4090007a0107004c
:100c48003e4090000080fb0064006000e00f500010
:100c58000300320011c0b3002e409000720107005b
:100c6800a14a20002e4090000080fb0000004000b8
:100c7800008f40001e007800be40900001487800b8
:100c88000080fa00000006000800fa0020479800db
:100c98003147980022079800634798003e4090002b
:100ca800e04f5000070032002e4090000080fb000b
:100cb800800040008089200000804000100f7800ec
:100cc800060037002e4090000080fb0080004000a6
:100cd8002089200000804000100f78001e00780056
:100ce800e00f500002003a000000eb00300037002f
:100cf800ae0090001e007800110098001e007800d9
:100d0800ee409000014878001e00780010409000e6
:100d18000044b2009e007800904098001e007800c1
:100d28009040900080c8b30000c070009e0078001a
:100d3800904098003e409000e04f50000e00320076
:100d4800818920002e4090000080fb0000004000b8
:100d580080804000828920002e4090000080fb00a7
:100d68000000400000004100104078000024a2006c
:100d7800804878000d003700218920002e4090001f
:100d88000080fb0000004000808040002289200095
:100d98002e4090000080fb00000040000000410051
:100da800104078000024a200804878001e007800d7
:100db8000080fa00000006000400fa0020479800ae
:100dc800314798002e409000e04f50000d003a0047
:100dd8008144800080c0b30080487800804480004f
:100de800a18c20001100980081448000c0c8b30085
:100df80090409800c144800040c8b30090409800db
:100e0800220037002e4090000080fb0000004000c8
:100e1800800078003e4090000080fb000080400089
:100e28004300dd008000780000a02000008f400013
:100e38001e0078009040900040c8b30000c07000c9
:100e48009e007800904098002e4090000080fb00a3
:100e580000004000800078003e4090000080fb00c9
:100e6800008040004300dd00e400400000a02000b6
:100e7800008f40001e0078009040900040c8b300ea
:100e880000c070009e007800904098000080fa0032
:100e9800000006000200fa00004f7800a12480003c
:100ea8000002200000806000e00f50005b0032006c
:100eb8009e4078000180fb0080004000808920006f
:100ec80000804000100278001e4178000280fb007c
:100ed80080004000808920000080400010007800d9
:100ee8001001be00000420000100200082027800ea
:100ef8000301780080017800010078008382620095
:100f08000000610001002000c000dd00000020009a
:100f18000001be006128b8000001710081817100e4
:100f2800028abe009e4178000380fb0080004000da
:100f38008089200000804000100278009e407800e0
:100f48000180fb0080004000808920000080400074
:100f5800100078001001be000004200001002000ed
:100f68000000690081806900008abe008189200034
:100f78001e4178000280fb00000040008080400095
:100f8800828920009e4178000380fb000000400019
:100f980000004100104078000024a200804878003a
:100fa8009e4078000180fb0080004000808920007e
:100fb80000804000900078001e4178000280fb000d
:100fc80000014000808920000000410010007800e6
:100fd800104090000044b200904098009e41780074
:100fe8000380fb00800040008089200000804000d2
:100ff800100178009e4078000180fb0080004000ce
:101008008089200000804000100078009040900007
:1010180000c4b30000c06800104198000080fa00c6
:10102800000006000000fa000000eb00a024880081
:101038000000eb00602488000000eb0040448800ba
:101048000080fa00000006000000fa00404480001a
:10105800e00f500016003a000000eb00a0248800c2
:101068000000eb0060248800200020003025880064
:101078000000eb00402588008644a900f009200004
:1010880080248800f0092000602488009ec0a80001
:10109800010037009404a800a024800061006000cb
:1010a800e00f5000fbff3200100020004044880091
:1010b8000080fa00000006000000fa0010468000d8
:1010c800e00f50002a003a00100020001046880067
:1010d80020468000e00f500025003a001000200054
:1010e800204688009fc8bf00e24f500007003a0022
:1010f800c14480000040eb0080487800c144800073
:1011080080ccb30090409800190037009fc8bf00fa
:10111800e14f500016003a000000eb00b04588008f
:101128007144800080c0b30080487800704480001b
:10113800a18c2000110098007144800040c8b300c1
:101148009040980010002000b0458800814480003d
:1011580080c0b3008048780080448000a18c2000c3
:10116800110098008144800000c8b30090409800a6
:101178000080fa00000006000000fa000000eb0002
:10118800304688000000eb00404688009fc8bf003a
:10119800e24f50000a003a008144800080c0b3004a
:1011a8008048780080448000218d2000110098003c
:1011b8008144800080ccb30090409800180037002c
:1011c800d0c8bf008080fb00d1c8bf000080fb00f2
:1011d8004800dd0001007000800078002045800094
:1011e800808f500007003100d0c8bf008080fb000e
:1011f800d1c8bf000080fb004800dd00010070007e
:101208002045880087000700c0448000218d200009
:1012180011009800c144800080ccb3009040980031
:101228000080fa00000006000400fa002047980039
:101238003147980000a02000000f78002e40900051
:101248000080fb0000004000800078003e409000d5
:101258000080fb00008040004300dd001e0f4000be
:101268001e00780010017800f1ff2700810061005e
:10127800010878003e409000e04f500007003a0017
:101288002e4090000080fb00800040002089200054
:10129800008040001e087800060037002e409000ad
:1012a8000080fb0080004000808920000080400012
:1012b8001e0878001e00780010017800f1ff2b004e
:1012c80081006100010878009e0078006480400079
:1012d80010017800010024008100710001087800e5
:1012e8000080fa00000006000000fa0094a4a9009b
:1012f800114580000008200000806000e00f5000c9
:101308001e003a00818a20009140780000c8b3008e
:1013180000c06000e04f50000b00320020c0b30056
:101328009fe8b70040468000e00f500001003a00f7
:1013380091ff07000000eb00204688000000eb004a
:1013480010468800350037008144800080c0b30013
:101358008048780080448000a18c2000110098000b
:1013680081448000c0c8b30090409800c144800008
:1013780040c8b3009040980028003700a18c200096
:101388009140780000c8b30000c06000e04f5000f2
:101398000f00320010c0b3009fe8b700304680004d
:1013a800e00f500001003a0073ff07000000eb0057
:1013b800204688000000eb001046880000468000a8
:1013c800e00f500015003a003bff070013003700fc
:1013d80020c0b3009fe8b7008144800080c0b300fc
:1013e8008048780080448000a18c2000110098007b
:1013f8008144800040c8b300904098000000eb0092
:10140800204688000000eb00104688000046800057
:10141800e00f500001003a0027ff07000080fa00a3
:10142800000006000200fa0080c0b300004f7800f8
:1014380020458000e70f50000d003e002045800049
:10144800004f78009ec8bf00e04f500003003a00ec
:1014580010c0b3009ee8b700050037009ec8bf0063
:10146800e14f500002003a0020c0b3009ee8b700e8
:10147800214580001e4178000280fb00008050005a
:1014880020458800c04480001e487800208d200038
:10149800704588001045800061006000e00f500032
:1014a80017003a00090037007245800001458000a6
:1014b80011407800004978000200e8007045880073
:1014c8000100e800004588001e4fe9001e40780032
:1014d800e04f5000f4ff3a000c00370072458000de
:1014e8000145800011407800004978000200e800ba
:1014f800704588000100e800004588001e4fe9009b
:101508001e407800e04f5000f4ff3a000080fa00d7
:10151800000006000200fa0070448000104f7800b6
:101528001e4078008080fb00a9c8bf000081fb0036
:10153800aac8bf000080fb004800dd000200700060
:10154800808f500007003600a9c8bf008080fb00cc
:10155800aac8bf000080fb004800dd000100700041
:10156800004f7800a9c8bf008080fb00aac8bf0050
:101578000080fb004800dd0001007000800078005a
:101588001e4178000280fb0080805000f00f200090
:1015980000816000a9c8bf00604060000240700080
:1015a800a9e8b700c808de00aac8bf00604060000c
:1015b80001407000aae8b7000040eb00104798000f
:1015c8001c003700a6c8bf008080fb00a7c8bf006a
:1015d8000080fb004800dd000100700080007800fa
:1015e8001e4090000081fb00208d2000000041007b
:1015f80010407800804878008100e800f00f200053
:1016080000816000a6c8bf00604060000240700012
:10161800a6e8b700c808de00a7c8bf0060406000a1
:1016280001407000a7e8b7001e4090000040e800a5
:10163800104798001e4090009e4f5000e1ff39006f
:10164800a9c8bf008080fb00aac8bf000080fb00bb
:101658004800dd0001007000e00f50001400320067
:101668008144800080c0b3008048780080448000b6
:10167800218d2000110098007044800090007800af
:101688000000240000806000e00f500004003a00d1
:101698008144800080ccb30090409800210037003e
:1016a8008144800080c8b300904098001d00370036
:1016b8008144800080c0b300804878008044800066
:1016c800a18c2000110098008144800040c8b3001c
:1016d80090409800abc8bf008080fb00acc8bf003a
:1016e8000080fb004800dd0001007000e00f5000a2
:1016f80007003200abc8bf008080fb00acc8bf0049
:101708000080fb004800dd000100700000000100bf
:10171800a8e8a90000468000e00f500001003a0048
:1017280065fe07000080fa00000006000200fa00cb
:10173800a2e8a800420020008000eb00c04a200078
:1017480077fb0700020320008000eb0000a02000c8
:1017580073fb07009424a8000040eb00004f7800ba
:101768000d0037001e4078008080fb00808b200031
:10177800808040000040eb00804878001e407800e0
:101788008080fb00b08b2000808040000040eb0090
:10179800804878001e4fe8001e407800e24f500055
:1017a800f0ff3600220020008000eb00b088200007
:1017b8005bfb07009424a90080a02000c044880097
:1017c80000a0200070448800704480008044880095
:1017d800ccc8bf008ae8b7008ac8bf00e04f5000f5
:1017e80003003a000001200040448800060037004a
:1017f80012002000a18820001000200072050700b8
:1018080000022000404488000080fa000000060022
:101818000000fa00a18c20009140780000c8b300b5
:1018280080cf500036003a0000ccb300a2e8b700e1
:10183800cdc8bf000080fb00e20f50000900320055
:10184800e30f500018003200e10f500029003a0061
:10185800402a2800004588002001200020458800f3
:1018680027003700ccc8bf000080fb000000400004
:101878008000780060362800008040001000780062
:1018880000458800004580000080e800104078008e
:10189800a4e8b700004580006300400010407800cd
:1018a800a5e8b70016003700ccc8bf00e24f5000cb
:1018b8000d003e00ccc8bf000080fb0000004000c7
:1018c80080007800803628000080400010007800f2
:1018d8000045880000458000104078000080fb002b
:1018e80020458800060037000040eb00a2e8b7005a
:1018f800030037000040eb00a2e8b700000000003a
:101908000080fa00000006000200fa000040eb0028
:10191800d2e8b7000040eb00d3e8b700cac8bf0060
:101928007f4060000080fb00e10f50000f00320094
:10193800e20f50000f003200e00f500037003a006d
:10194800a2e8a800d2c8bf000004a000d2e8b700ef
:1019580080458000e10f50002b003a00d2c8bf003c
:101968000014a000d2e8b7002c003700a2e8a800b5
:101978002a003700a2e8a800e18c200091407800f6
:1019880000c8b30000c06000e04f500008003a00f3
:10199800cec8bf006f4060000080fb0080004000a0
:1019a8002089200000804000100f780007003700d1
:1019b800cec8bf006f4060000080fb008000400080
:1019c8008089200000804000100f78001e007800f9
:1019d800900078000000280000806000e00f5000b0
:1019e8000b0032001e0078009000780000402000b4
:1019f80000806000e00f50000700320010c0b30004
:101a0800d2e8b700050037000000000003003700e7
:101a180000000000010037000000000011458000b0
:101a28000008200000806000e00f50000500320030
:101a3800208d200000458800a208a80020c0b3001f
:101a4800a4e8b7000080fa00000006000000fa00d1
:101a58005025800062006000e00f50000e00320048
:101a6800704480009040900000c8b30080cf5000c0
:101a780008003a00c04480009040900040c8b3007d
:101a880080cf500003003a0071448000c0c8b30002
:101a980090409800aa24a90000082000502488003b
:101aa8000080fa00000006000000fa008284a80006
:101ab8000001200050248800100020009045880074
:101ac8000001eb008000eb0050072000be04070077
:101ad8000080fa00000006000000fa000000eb0099
:101ae800904588000001eb008000eb0040072000d3
:101af800b50407008284a9000001200000248800a2
:101b08000080fa00000006000200fa00d0c2b3000c
:101b1800bee8b700b4c8bf008080fb00b0ff2f004c
:101b280000806000e00f500031003a00b4c8bf00e8
:101b38000080fb004200de00004078000080fb00cf
:101b4800c200dd0000a02000008040007044880032
:101b580070448000804488000189200000892000aa
:101b6800104078000024a20080487800704480006b
:101b78009000780000c023008080600000402300af
:101b8800808f500018003a000040eb00004f7800aa
:101b98000d0037001e4078008080fb00a08c2000dc
:101ba8008080400070448000100090001040780051
:101bb8008048780070448000900090008100e80020
:101bc800110098001e4fe8001e407800e74f5000b3
:101bd800f0ff360070448000a18c200011009800ae
:101be8000c00070009003700440007000700370011
:101bf800b4c8bf008080fb00b0ff2f0000806000e9
:101c0800e80f500001003a00550007000080fa0074
:101c1800000006000000fa000040eb009ee8b70054
:101c28000000eb00004688000000eb00304688000a
:101c38000000eb00404688000000eb00b04588003b
:101c48000040eb009fe8b700c1448000c04480001a
:101c5800104090000074a1009040980081892000f5
:101c680080892000104078000024a2008048780075
:101c7800c1448000c0448000104090000074a1005e
:101c880090409800818920008089200010407800c9
:101c98000024a200804878008144800080448000ad
:101ca800104090000074a100904098000040eb00a4
:101cb800a2e8b7000000eb00204588000040eb00d8
:101cc800a8e8b700a9c8bf0060406000a9e8b7004d
:101cd800aac8bf0060406000aae8b7006c0007000f
:101ce8000001eb008000eb00300020003604070004
:101cf8007dfd07000080fa00000006000000fa00e1
:101d08009fc8bf00e24f500002003a0001fe0700e2
:101d1800110037000040eb009fe8b700b045800095
:101d2800e00f50000a003a008144800080c0b300f0
:101d38008048780080448000a18c20001100980021
:101d480081448000c0c8b30090409800020037006a
:101d58000000eb00b04588000080fa000000060093
:101d68000200fa00c0448000100078004e00de0037
:101d780061406000004f7800818920008089200040
:101d8800104078000024a200804878004044800079
:101d9800e80f50000b003a00ccc8bf000080fb00e1
:101da800b0248800b0248000e00f50000300320007
:101db8000001200040448800020037004000200055
:101dc800404488009fc8bf00e14f500016003a0009
:101dd800c0448000218d20001100980091fd07006b
:101de8009ec8bf00e24f500004003a00c144800082
:101df80040c8b30090409800230037001e40780088
:101e0800e04f500004003a00c144800080ccb30089
:101e1800904098001c003700c144800080c8b3007f
:101e28009040980018003700818a2000914078007f
:101e380000c8b30000c06000e04f5000100032003e
:101e4800abc8bf008080fb00acc8bf000080fb00af
:101e58004800dd0001007000e00f5000070032006c
:101e6800abc8bf008080fb00acc8bf000080fb008f
:101e78004800dd000100700000000100a8e8a9008a
:101e88000040eb009fe8b7000080fa000000060061
:101e98000000fa00cac8bf000046b200e04f500078
:101ea8003f003a00cbc8bf000080fb00cf80de00b7
:101eb800b200200003002000820f5000838f5800da
:101ec80039003e00006001001a0037001b0037008f
:101ed8003700370019003700350037000600370093
:101ee80009003700290037000b00370008003700c9
:101ef800140037001d003700a2e8a8008000200069
:101f0800404488002b00370041fe070029003700b5
:101f180006fe070027003700a0882000004588003b
:101f2800a208a80010c0b300a4e8b700a2e8a8005f
:101f38002000370074fe07001e0037001f0007004e
:101f48001c003700cec8bf008080fb00b08820008e
:101f58000080400000458800a208a80010c0b30017
:101f6800a4e8b700a2e8a80012003700a2e8a80079
:101f7800cec8bf000081fb00ccc8bf00b1882000dc
:101f880081004100804878000a0037000001eb001a
:101f98008000eb00200020008b03070005003700bd
:101fa80000000000030037000000000001003700b7
:101fb800000000000080fa00000006000600fa0099
:101fc800ccc8bf00e14f50000d003a00cac8bf009e
:101fd8007f406000e04f500009003a00a2e8a800e6
:101fe800cbc8bf00e34f500003003a0010002000a8
:101ff80080458800020037000000eb00804588001b
:10200800ccc8bf00e04f5000eb003a00cac8bf0080
:102018007f406000e24f5000e7003a00cec8bf00a2
:102028006f406000e04f5000e3003200cec8bf00b0
:102038006f4060000080fb00e20f5000de003c00b3
:102048004144800000022000808f5000da003a00ee
:10205800a2e8a800e18c20009140780000c8b300f5
:1020680000c06000e04f500010003a00cec8bf002a
:102078006f4060000080fb00800040002089200045
:10208800008040001000780010079800cec8bf00fc
:102098006f4060008080fb00b08b20000080400013
:1020a80010407800404798000f003700cec8bf00a6
:1020b8006f4060000080fb008000400080892000a5
:1020c800008040001000780010079800cec8bf00bc
:1020d8006f4060008080fb00808b20000080400003
:1020e80010407800404798004e40900061406000e2
:1020f800e04f500007003a000e81e8000e80e8002b
:1021080090407800b0cfb30000c06000004978006c
:10211800050037008e80e8000e80e8001040780047
:102128000024a00080487800e18c200091407800cd
:1021380000c8b30000c06000e04f500009003a003a
:10214800cec8bf006f4060000080fb009e0090007a
:1021580000014000208920000000410001087800ab
:1021680008003700cec8bf006f4060000080fb0049
:102178009e0090000001400080892000000041007e
:1021880001087800cbc8bf00e34f500024003a0094
:102198001e00900090007800000028000080600079
:1021a800e00f500017003200e18c200091407800c9
:1021b80000c8b30000c06000e04f500009003a00ba
:1021c800cec8bf006f4060008080fb00b08b20004d
:1021d80080804000114078000014a00080487800fa
:1021e80008003700cec8bf006f4060008080fb0049
:1021f800808b200080804000114078000014a000ef
:10220800804878001e0190001e00900090409000c9
:1022180040c8b30000c07000104198006600370045
:102228008e80e8000e80e800104078000024a200ac
:10223800804878001e009000900078000000280078
:1022480000806000e00f5000110032009e009000f6
:102258001e009000104090000074a100904098006b
:102268001e0190001e0090009040900000c4b30032
:1022780000c07000104198001e009000220020004d
:102288008000780050002000cf02070006003700c9
:102298001e0190001e0090009040900000c4b30002
:1022a80000c07000104198008e80e8000e80e800a1
:1022b800104078000024a200804878004e4090002a
:1022c80062406000e04f500006003a001e00900097
:1022d800900078000000280000806000e00f5000a7
:1022e80024003200e18c20009140780000c8b3003f
:1022f80000c06000e04f50000a003a00cec8bf009e
:102308006f4060008080fb00b08b2000008140009f
:1023180092407800d0cfb30000c060000049780038
:1023280009003700cec8bf006f4060008080fb0006
:10233800808b20000081400092407800d0cfb3000d
:1023480000c06000004978009e0090001e009000c8
:1023580010409000b043b200904098001e009000da
:10236800220020008000780050002000960207001c
:10237800050037009e0090001e009000104090005d
:10238800b043b20090409800a14a2000cec8bf00d8
:102398006f4060000080fb0000004000008f40009c
:1023a8001e00780090407800d0cfb30000c06000d5
:1023b8009e007800804878000080fa00000006003f
:1023c8000000fa00cac8bf007f406000e14f50001b
:1023d80074003a00cac8bf0002c6b3008240600059
:1023e80000c2b30080cf500070003a00cec8bf00d2
:1023f800e04f500003003200cec8bf00e14f50004c
:102408006c003a00cbc8bf000080fb00cf80de0024
:102418002202200003002000820f5000838f580002
:1024280066003e00006001002200370028003700e7
:10243800640037006300370062003700610037002e
:10244800600037005f0037005e0037005d0037002e
:102458005c0037005b0037005a003700590037002e
:10246800580037005700370056003700550037002e
:10247800540037005300370052003700510037002e
:10248800500037004f0037004e0037004d0037002e
:102498004c0037004b0037004a003700490037002e
:1024a80048003700470037000d003700320037007a
:1024b80038003700408f2000004588008000200049
:1024c80020458800a208a800a2e8a8003e0037001e
:1024d800408f200000458800a2e8a8003a00370095
:1024e800d0c8bf008080fb00d1c8bf000080fb00bf
:1024f8004800dd000100700080007800f00f200027
:1025080000816000a9c8bf00604060000240700000
:10251800a9e8b700c808de00aac8bf00604060008c
:1025280001407000aae8b700a18d2000f00f20003c
:1025380000816000a6c8bf006040600002407000d3
:10254800a6e8b700c808de00a7c8bf006040600062
:1025580001407000a7e8b700abc8bf00604060004a
:10256800abe8b700acc8bf0060406000ace8b7009b
:10257800a8e8a80014003700a08d200000458800b6
:10258800700020002045880010ccb300a2e8b700f6
:102598000d003700ccc8bf00eee8b700a2e8a800dd
:1025a80009003700000000000700370000000000a5
:1025b800050037000000000003003700000000009d
:1025c80001003700000000000080fa00000006004b
:1025d8000000fa0000b0240001002000d046880066
:1025e800e14688000040eb00dee8b7000040eb0061
:1025f800dfe8b70080c0b300e0e8b7000040eb00b8
:10260800e2e8b70051c1b30010c0b30081f9070078
:10261800d1c1b30020c0b3007ef9070003c4b300e2
:10262800c29320008040eb0020c0b30096f9070059
:10263800504788000000eb00604788000040eb002e
:10264800e3e8b7000080fa00000006000600fa0080
:10265800000f780011079800220798001e007800e4
:10266800e50f500014003a00504780009e0090008b
:10267800808f500006003a0003c4b300c2932000c4
:102688008040eb0020c0b3007ff907005047880066
:10269800604780009e009000808f500004003a0040
:1026a8000040eb00e3e8b7000040eb00e8e8b700c3
:1026b80010002000010037000000eb000080fa0045
:1026c800000006000400fa00000f78002147980077
:1026d8000040eb00e2e8b70050478000e00f5000f0
:1026e8000600320050478000900078000000280063
:1026f80000806000e00f500021003a005047800041
:10270800904078002e40900080cf500003003100a8
:102718005047800090407800214798000040eb0027
:10272800e2e8b7000b003700e2c8bf000080fb00fa
:102738009e004000e2c8bf000080fb00c29320005a
:102748006240780080487800e2c8bf000040e80096
:10275800e2e8b700218e2000914078002e409000da
:1027680080cf5000f0ff390003c4b300c2932000ab
:102778008040eb0020c0b30043f9070050478800b1
:10278800e2c8bf000080fa00000006000400fa005a
:10279800000f7800214798009ec0a900e3c8bf0039
:1027a800e04f500008003a001e00780020478800db
:1027b8002e409000e8e8b70010c0b300e9e8b70081
:1027c80010c0b300e3e8b7009ec0a8000080fa007c
:1027d800000006000600fa00200798009ec0a90025
:1027e800e3c8bf00e04f5000020032009ec0a800be
:1027f8001e0037000040eb00004f78002e009000cc
:10280800100798001e4fe8001e407800e14f400076
:102818000c0032001e009000104078000080fb0081
:102828000000ea004f00de00004078009e009000a3
:102838008100e80011079800e04f5000f1ff3a00ce
:1028480001003700000000002e009000204788009b
:102858001e407800e8e8b70010c0b300e9e8b70008
:1028680010c0b300e3e8b7009ec0a8000080fa00db
:10287800000006000600fa00200798009ec0a90084
:10288800e3c8bf00e04f5000020032009ec0a8001d
:102898001e0037000040eb00004f78002e0090002b
:1028a800100798001e4fe8001e407800e14f4000d6
:1028b8000c0032001e009000104078000080fb00e1
:1028c8000000ea004f00de00004078009e00900003
:1028d8008100e80011079800e04f5000f1ff3a002e
:1028e80001003700000000002e00900020478800fb
:1028f8001e407800e8e8b7000040eb00e9e8b700c0
:1029080010c0b300e3e8b7009ec0a8000080fa003a
:10291800000006000200fa009ec0a900604780007f
:10292800e00f5000080032006047800090007800f7
:102938000000280000806000e00f50000200320014
:102948009ec0a80062003700e3c8bf00e34f5000f4
:1029580002003a000040eb00e3e8b700e3c8bf001c
:10296800e04f500002003a009ec0a800580037000f
:10297800e3c8bf00e24f500009003a008041eb0075
:102988000001eb0011c0b30020c0b300bef807007f
:102998006047880030c0b300e3e8b7004b00370059
:1029a800e3c8bf00e14f500048003a00818e200084
:1029b8009140780000c4b30080cf50000300360077
:1029c80000c4b300004f780002003700e8c8bf0019
:1029d800004f7800e8c8bf001e405000e8e8b70084
:1029e800c08f2000304788001e40780010479800ac
:1029f800e9c8bf00e04f50001f003a000d00370043
:102a080031478000204780001040780080487800d7
:102a1800304780000000e8003047880020478000e9
:102a28000000e800204788001e4090000040e900b0
:102a3800104798001e409000e04f5000f0ff3a0009
:102a48001000370031478000204780001040780090
:102a580080487800304780000000e8003047880050
:102a6800204780000000e800204788001e409000b2
:102a78000040e900104798001e409000e04f5000c9
:102a8800f0ff3a00e8c8bf00e04f500009003a00e4
:102a980000c4b3009e40780080cf500003003a0085
:102aa80020c0b300e3e8b7000200370030c0b3002d
:102ab800e3e8b7009e417800c28f200011c0b30040
:102ac80020c0b30070f80700604788009ec0a800c7
:102ad8000080fa00000006000000fa000a00070063
:102ae8002024800068006000e00f500004003200dd
:102af80040448000e00f500001003a0052f90700fe
:102b080023000700f6ff37000000fa000080eb0002
:102b18006019880003000700f9f607000080fa0032
:102b2800000006000000fa000040eb0084e8b7004f
:102b38000000eb00104488001000200000448800ca
:102b4800a1178000f0e12f0000806000a017880026
:102b580081178000f0e12f00008060008017880056
:102b680061178000f0fc2f0000806000601788006b
:102b780041178000f0fc2f0000806000401788009b
:102b8800d8c2a800d8e2a8000080fa000000060019
:102b98000200fa0040448000ff0f50004c0036004d
:102ba8004024800062006000e00f50004a003a00b4
:102bb80010448000e00f50000b00320000448000f9
:102bc800e00f50000a003a00e3c8bf00e04f500091
:102bd80007003a00e036280026ff07001000200012
:102be80000448800020037000000eb000044880021
:102bf800e3c8bf00e04f500033003a0001c4b300ff
:102c080000842000affe0700104798001e40900087
:102c1800e04f50002c0032000040eb00004f7800dd
:102c2800220037001e4078008080fb0000842000ce
:102c380000804000104078000000fb00ea0f5000c0
:102c480002003200ed0f50000b003a001e407800e1
:102c58000081fb001e4078008080fb00008420007b
:102c68000080400010407800018020008100410071
:102c7800804878000c0037001e4078000081fb0077
:102c88001e4078008080fb00008420000080400007
:102c9800104078000040e8000180200081004100d9
:102ca80080487800000000001e4fe8001e40900099
:102cb8009e40780080cf5000daff39009e40900097
:102cc80000802000b1fe070012ff07000300370054
:102cd8000000000001003700000000000080fa003a
:102ce800000006000000fa006b0007000080fa00f0
:102cf800000006000000fa000080fa00000006004c
:102d08000000fa000080fa00000006000000fa0047
:102d18000080fa00000006000000fa00a8fd070085
:102d28000080fa00000006000000fa000080fa00a7
:102d3800000006000000fa0025fe07000080fa00e7
:102d4800000006000000fa0080458000e10f5000f6
:102d58001b003a0090458000e10f500018003a002f
:102d68009ec0a900e3ff07008824a9000000eb002b
:102d78009045880000e120003044880030448000fd
:102d88000000e9003044880030448000e00f500023
:102d9800faff3a009444a80080702000304488006c
:102da800304480000000e90030448800304480004e
:102db800e00f5000faff3a009444a9009ec0a80012
:102dc8000080fa00000006000600fa00000f7800f4
:102dd80011079800220798001e007800210720009c
:102de800810f50002800320021072000810f500079
:102df8000a003c00e20f50001d003200e20f5000b4
:102e080003003c00e10f5000170032001f0037009c
:102e1800e30f5000180032001c0037004107200063
:102e2800810f50000e00320041072000810f500032
:102e38000700350051072000810f500006003200be
:102e4800f1ff2700810f50000d0032000f003700fe
:102e5800abff07000d003700a2ff07000b0037008b
:102e6800a4ff070009003700b2ff0700070037007a
:102e7800adff070005003700a7ff07000300370074
:102e8800a2ff07000100370000000000100020002a
:102e98000080fa00000006000800fa008024800084
:102ea800000f78006024800010079800102480002c
:102eb80020079800f00480004600de0061406000b2
:102ec800604798000000eb00802488000000eb00b9
:102ed800602488000000eb00102488008ec0a90040
:102ee8008284a80000012000002488009ec0a80059
:102ef8000040fe006e409000614060000080fb00d2
:102f0800610060004600dd00f2048000f1fb2f0044
:102f18008100610000807000f00488001e007800c5
:102f2800802488001e009000602488002e009000f5
:102f380010248800100020000080fa00000006001d
:020000040000fa
:102f4800880800005200000000000000000a00008d
:102f58003000000000000000fc0800008a000000ab
:102f680000000000da080000220000000000000055
:102f780000080000880000000000000000000000b9
:020000040000fa
:020000040005f5
:0457f8009e230000ec
:020000040000fa
:020000040005f5
:0457fc007f3e0000ec
:00000001FF
