:020000040000fa
:080000000002040000000000f2
:020000040000fa
:1000080090020000900200009002000090020000a0
:100018009002000090020000900200009002000090
:100028009002000090020000900200009002000080
:100038009002000090020000900200009002000070
:100048009002000090020000900200009002000060
:100058009002000090020000900200009002000050
:100068009002000090020000900200009002000040
:100078009002000090020000900200009002000030
:100088009002000090020000900200009002000020
:100098009002000090020000900200009002000010
:1000a8009002000090020000900200009002000000
:1000b80090020000900200009002000090020000f0
:1000c80090020000900200009002000090020000e0
:1000d80090020000900200009002000090020000d0
:1000e80090020000900200009002000090020000c0
:1000f80090020000900200009002000090020000b0
:10010800900200009002000090020000900200009f
:10011800900200009002000090020000900200008f
:10012800900200009002000090020000900200007f
:10013800900200009002000090020000900200006f
:10014800900200009002000090020000900200005f
:10015800900200009002000090020000900200004f
:10016800900200009002000090020000900200003f
:100178009002000090020000740400009002000049
:10018800900200009002000090020000900200001f
:10019800900200009002000090020000900200000f
:1001a80090020000900200009002000090020000ff
:1001b80090020000900200009002000090020000ef
:1001c80090020000900200009002000090020000df
:1001d80090020000900200009002000090020000cf
:1001e80090020000900200009002000090020000bf
:0801f8009002000090020000db
:020000040000fa
:10020800900200009002000090020000900200009e
:10021800900200009002000090020000900200008e
:10022800900200009002000090020000900200007e
:10023800900200009002000090020000900200006e
:10024800900200009002000090020000900200005e
:10025800900200009002000090020000900200004e
:10026800900200009002000090020000900200003e
:10027800900200009002000090020000900200002e
:10028800900200009002000090020000900200001e
:10029800900200009002000090020000900200000e
:1002a80090020000900200009002000090020000fe
:1002b80090020000900200009002000090020000ee
:1002c80090020000900200009002000090020000de
:1002d80090020000900200009002000090020000ce
:1002e80090020000900200009002000090020000be
:1002f80090020000900200009002000090020000ae
:10030800900200009002000090020000900200009d
:10031800900200009002000090020000900200008d
:10032800900200009002000090020000900200007d
:10033800900200009002000090020000900200006d
:10034800900200009002000090020000900200005d
:10035800900200009002000090020000900200004d
:10036800900200009002000090020000900200003d
:100378009002000090020000740400009002000047
:10038800900200009002000090020000900200001d
:10039800900200009002000090020000900200000d
:1003a80090020000900200009002000090020000fd
:1003b80090020000900200009002000090020000ed
:1003c80090020000900200009002000090020000dd
:1003d80090020000900200009002000090020000cd
:1003e80090020000900200009002000090020000bd
:0803f8009002000090020000d9
:020000040000fa
:100400000fa320000e7f24000e01880000000000d2
:100410000c000700e08d2100010020001100070002
:10042000000020000000e000020032000000020096
:100430000000000070150200000000000040da001b
:100440000000fe004440a900000e20000000e00073
:100450000300320000002000a00188004440a800f2
:100460000000060091018800800078000000eb0089
:1004700015003700e280400032a0b4009101ba00bc
:10048000e280400032a0b4009102ba00e280400055
:1004900032a0b4000002eb00472bde00f507b200eb
:1004a000602ce10004003a000059eb008301e900f0
:1004b000fdff3e00040037006128e100010032002a
:1004c0000082eb00040007001101ba000200e00006
:1004d000e8ff3a00000006003159ba008301e90044
:1004e0000c0032002159ba008301e90008003200f3
:1004f0000400e00003003a00e280400032a0b400b3
:10050000f5ff370011d9ba008301e900faff3a007c
:100510008100e800e180400032a0b4000000060045
:100520000040da000000fe00800178000200370081
:1005300081597800040178000202e900e00f5100bf
:08054000fbff3a000000060079
:020000040000fa
:100548001201000000020000020000000008000084
:10055800d80400000a0000000001000001020000a9
:100568000001000009020000430000000201000031
:1005780000c0000032090000040000000001000073
:100588000202000001000000052400000010000025
:1005980001040000240200000205000024060000f7
:1005a8000001000005240000010000000107000010
:1005b8000581000003080000000200000904000093
:1005c80001000000020a000000000000000700000f
:1005d80005020000024000000000000007050000be
:1005e8008202000040000000000000000403000038
:1005f80009040000340300004d00000069000000f9
:1006080063000000720000006f000000630000003b
:100618006800000069000000700000002000000071
:10062800540000006500000063000000680000003e
:100638006e0000006f0000006c0000006f000000fa
:100648006700000079000000200000004900000059
:100658006e000000630000002e000000340300005c
:100668004300000044000000430000002000000098
:1006780052000000530000002d000000320000006e
:100688003300000032000000200000004500000098
:100698006d000000750000006c00000061000000a3
:1006a80074000000690000006f0000006e00000088
:1006b8002000000044000000650000006d000000fc
:1006c8006f000000b6820000fa820000fe8200007f
:1006d8003283000042750000747400006f6e0000e1
:1006e800205000007265000073730000656400000c
:1006f800202d00002d2000000d0a00000000000041
:020000040000fa
:100708000200fa009ec0a9000080eb007024880057
:100718000080eb00502488000000eb005025880082
:10072800420020008000eb00c04a20007cff070048
:1007380020002000302588000000eb0040258800bc
:100748008644a900f009200080248800f0092000d0
:10075800602488008804a80000a020004800de006b
:10076800c02488000040eb00004f780008003700e4
:100778009e4078000180fb00c200dd0000a0200040
:10078800008140006000b8000089be001e4fe800ec
:100798001e407800eb4f5000f5ff36009424a80067
:1007a8000000eb00b024880094a4a9009424a900b8
:1007b8000c00370080002000502488000040eb0027
:1007c800a4e8b7000040eb00aae8b700abc8bf0038
:1007d80060406000abe8b700acc8bf006040600094
:1007e800ace8b7005024800068006000e00f5000bb
:1007f800f0ff3a001000200020468800100020007a
:10080800304688000000eb00404688000000eb00fe
:10081800504688000000eb00a04588000040eb002f
:10082800004f78001b0037009e4078000180fb00d5
:1008380080004000a0892000008040008000eb007c
:10084800010878009e4078000180fb00800040008d
:1008580040892000008040008000eb0001087800fb
:100868001e4078008080fb00a08b20008080400024
:100878000040eb00804878001e4078008080fb0034
:10088800d08b2000808040000040eb00804878003a
:100898001e4fe8001e407800e24f5000e2ff36008d
:1008a80080a02000d0448800d00020005025880077
:1008b800c08c20001050880080c0b30000eab70048
:1008c80040c8b30001eab7000040eb008ce8b7006d
:1008d8000000eb00504488000080fa000000060089
:1008e8003600f800809fbe00829fbe00849fbe0035
:1008f800869fbe003400f80000002000a001880098
:100908000200fa0050448000e10f50000b003a004a
:10091800a12480000004200000806000e00f500047
:1009280006003a000080eb00502488008c04a800e0
:100938008c84a800200020005044880000248000f7
:1009480070006000e00f50000700320010248000a3
:1009580070006000e00f500003003200000120002a
:10096800002488005c0407004024800062006000c6
:10097800e00f5000020032008ec0a9009d00370031
:100988005024800061006000e00f50000a0032002f
:100998006024800061006000e00f50000600320013
:1009a80057ff07009ec0a800400020005044880060
:1009b800100020005024880050248000700060003f
:1009c800e00f5000070032006024800070006000d3
:1009d800e00f50000300320033040700000120003c
:1009e800502488005024800064006000e00f50000c
:1009f800140032006024800064006000e00f5000a2
:100a080004003200120020008000eb0030072000b4
:100a18008a0907004000200050248800c0c8bf0091
:100a2800e04f500003003200c0c8bf000040e9009a
:100a3800c0e8b700c0c8bf00e04f500001003a004e
:100a48009d010700512480000008200000806000fc
:100a5800e00f5000060032006124800000082000ea
:100a680000806000e00f500001003200f70307002b
:100a78005024800062006000e00f50000c0032003b
:100a88006024800062006000e00f5000080032001f
:100a9800120020008000eb00f0ff27006709070024
:100aa8000080eb007024880020002000502488007b
:100ab80050448000e30f500002003e008ec0a900a1
:100ac8004c0037006024800068006000e00f500090
:100ad800470032000040eb00004f78003f0037002d
:100ae8005024800068006000e00f50003f00320092
:100af8009024800000407800b6e8b700b6c8bf0070
:100b08000080fb004400de0000407800b7e8b70032
:100b18008000200050248800b6c8bf0068406000ec
:100b2800e04f500012003a00b7c8bf000081fb0038
:100b38008080fb00d08b200000804000904078002f
:100b480061c060000004a20061406000d18b2000f9
:100b5800810141006140600013417800e1cfb3009a
:100b68008140610000c070008049780011003700a2
:100b7800b7c8bf000081fb008080fb00a08b20006d
:100b8800008040009040780061c060000004a2002e
:100b980061406000a18b200081014100614060003c
:100ba80013417800e1cfb3008140610000c07000bc
:100bb80080497800b7c8bf00e04f500002003a00f3
:100bc800d1030700040037000001eb00618b20000f
:100bd80020072000190907001e4fe8001e40780072
:100be800e34f5000beff3600010037000000000050
:100bf8008ec0a9000080fa003400f9004f03be003f
:100c08004f02be004f01be004f00be003600f90083
:100c1800004006000400fa00204798003147980079
:100c28003e4090000080fb0068006000e00f50002c
:100c3800030032008040eb002e4090007a0107004c
:100c48003e4090000080fb0064006000e00f500010
:100c58000300320011c0b3002e409000720107005b
:100c6800a14a20002e4090000080fb0000004000b8
:100c7800008f40001e007800be40900001487800b8
:100c88000080fa00000006000800fa0020479800db
:100c98003147980022079800634798003e4090002b
:100ca800e04f5000070032002e4090000080fb000b
:100cb80080004000a089200000804000100f7800cc
:100cc800060037002e4090000080fb0080004000a6
:100cd8004089200000804000100f78001e00780036
:100ce800e00f500002003a000000eb00300037002f
:100cf800ae0090001e007800110098001e007800d9
:100d0800ee409000014878001e00780010409000e6
:100d18000044b2009e007800904098001e007800c1
:100d28009040900080c8b30000c070009e0078001a
:100d3800904098003e409000e04f50000e00320076
:100d4800a18920002e4090000080fb000000400098
:100d580080804000a28920002e4090000080fb0087
:100d68000000400000004100104078000024a2006c
:100d7800804878000d003700418920002e409000ff
:100d88000080fb0000004000808040004289200075
:100d98002e4090000080fb00000040000000410051
:100da800104078000024a200804878001e007800d7
:100db8000080fa00000006000400fa0020479800ae
:100dc800314798002e409000e04f50000d003a0047
:100dd8009144800080c0b30080487800904480002f
:100de800c18c20001100980091448000c0c8b30055
:100df80090409800d144800040c8b30090409800cb
:100e0800220037002e4090000080fb0000004000c8
:100e1800800078003e4090000080fb000080400089
:100e28004300dd008000780000a02000008f400013
:100e38001e0078009040900040c8b30000c07000c9
:100e48009e007800904098002e4090000080fb00a3
:100e580000004000800078003e4090000080fb00c9
:100e6800008040004300dd00e400400000a02000b6
:100e7800008f40001e0078009040900040c8b300ea
:100e880000c070009e007800904098000080fa0032
:100e9800000006000200fa00004f7800a12480003c
:100ea8000002200000806000e00f50005b0032006c
:100eb8009e4078000180fb0080004000a08920004f
:100ec80000804000100278001e4178000280fb007c
:100ed80080004000a08920000080400010007800b9
:100ee8001001be00000420000100200082027800ea
:100ef8000301780080017800010078008382620095
:100f08000000610001002000c000dd00000020009a
:100f18000001be006128b8000001710081817100e4
:100f2800028abe009e4178000380fb0080004000da
:100f3800a089200000804000100278009e407800c0
:100f48000180fb0080004000a08920000080400054
:100f5800100078001001be000004200001002000ed
:100f68000000690081806900008abe00a189200014
:100f78001e4178000280fb00000040008080400095
:100f8800a28920009e4178000380fb0000004000f9
:100f980000004100104078000024a200804878003a
:100fa8009e4078000180fb0080004000a08920005e
:100fb80000804000900078001e4178000280fb000d
:100fc80000014000a08920000000410010007800c6
:100fd800104090000044b200904098009e41780074
:100fe8000380fb0080004000a089200000804000b2
:100ff800100178009e4078000180fb0080004000ce
:10100800a0892000008040001000780090409000e7
:1010180000c4b30000c06800104198000080fa00c6
:10102800000006000000fa000000eb00a024880081
:101038000000eb00602488000000eb0050448800aa
:101048000080fa00000006000000fa00504480000a
:10105800e00f500016003a000000eb00a0248800c2
:101068000000eb0060248800200020003025880064
:101078000000eb00402588008644a900f009200004
:1010880080248800f0092000602488009ec0a80001
:10109800010037009404a800a024800061006000cb
:1010a800e00f5000fbff3200100020005044880081
:1010b8000080fa00000006000000fa0020468000c8
:1010c800e00f50002a003a00100020002046880057
:1010d80030468000e00f500025003a001000200044
:1010e80030468800a1c8bf00e24f500007003a0010
:1010f800d14480000040eb0080487800d144800053
:1011080080ccb3009040980019003700a1c8bf00f8
:10111800e14f500016003a000000eb00c04588007f
:101128008144800080c0b3008048780080448000fb
:10113800c18c2000110098008144800040c8b30091
:101148009040980010002000c0458800914480001d
:1011580080c0b3008048780090448000c18c200093
:10116800110098009144800000c8b3009040980096
:101178000080fa00000006000000fa000000eb0002
:10118800404688000000eb0050468800a1c8bf0018
:10119800e24f50000a003a009144800080c0b3003a
:1011a8008048780090448000418d2000110098000c
:1011b8009144800080ccb30090409800180037001c
:1011c800d2c8bf008080fb00d3c8bf000080fb00ee
:1011d8004800dd0001007000800078003045800084
:1011e800808f500007003100d2c8bf008080fb000c
:1011f800d3c8bf000080fb004800dd00010070007c
:101208003045880087000700d0448000418d2000c9
:1012180011009800d144800080ccb3009040980021
:101228000080fa00000006000400fa002047980039
:101238003147980000a02000000f78002e40900051
:101248000080fb0000004000800078003e409000d5
:101258000080fb00008040004300dd001e0f4000be
:101268001e00780010017800f1ff2700810061005e
:10127800010878003e409000e04f500007003a0017
:101288002e4090000080fb00800040004089200034
:10129800008040001e087800060037002e409000ad
:1012a8000080fb0080004000a089200000804000f2
:1012b8001e0878001e00780010017800f1ff2b004e
:1012c80081006100010878009e0078006480400079
:1012d80010017800010024008100710001087800e5
:1012e8000080fa00000006000000fa0094a4a9009b
:1012f800214580000008200000806000e00f5000b9
:101308001e003a00a18a20009140780000c8b3006e
:1013180000c06000e04f50000b00320020c0b30056
:10132800a1e8b70050468000e00f500001003a00e5
:1013380091ff07000000eb00304688000000eb003a
:1013480020468800350037009144800080c0b300f3
:101358008048780090448000c18c200011009800db
:1013680091448000c0c8b30090409800d1448000e8
:1013780040c8b3009040980028003700c18c200076
:101388009140780000c8b30000c06000e04f5000f2
:101398000f00320010c0b300a1e8b700404680003b
:1013a800e00f500001003a0073ff07000000eb0057
:1013b800304688000000eb00204688001046800078
:1013c800e00f500015003a003bff070013003700fc
:1013d80020c0b300a1e8b7009144800080c0b300ea
:1013e8008048780090448000c18c2000110098004b
:1013f8009144800040c8b300904098000000eb0082
:10140800304688000000eb00204688001046800027
:10141800e00f500001003a0027ff07000080fa00a3
:10142800000006000200fa0080c0b300004f7800f8
:1014380030458000e70f50000d003e003045800029
:10144800004f7800a0c8bf00e04f500003003a00ea
:1014580010c0b300a0e8b70005003700a0c8bf005f
:10146800e14f500002003a0020c0b300a0e8b700e6
:10147800314580001e4178000280fb00008050004a
:1014880030458800d04480001e487800408d2000f8
:10149800804588002045800061006000e00f500012
:1014a80017003a0009003700824580001145800086
:1014b80011407800004978000200e8008045880063
:1014c8000100e800104588001e4fe9001e40780022
:1014d800e04f5000f4ff3a000c00370082458000ce
:1014e8001145800011407800004978000200e800aa
:1014f800804588000100e800104588001e4fe9007b
:101508001e407800e04f5000f4ff3a000080fa00d7
:10151800000006000200fa0080448000104f7800a6
:101528001e4078008080fb00abc8bf000081fb0034
:10153800acc8bf000080fb004800dd00020070005e
:10154800808f500007003600abc8bf008080fb00ca
:10155800acc8bf000080fb004800dd00010070003f
:10156800004f7800abc8bf008080fb00acc8bf004c
:101578000080fb004800dd0001007000800078005a
:101588001e4178000280fb0080805000f00f200090
:1015980000816000abc8bf0060406000024070007e
:1015a800abe8b700c808de00acc8bf006040600008
:1015b80001407000ace8b7000040eb00104798000d
:1015c8001c003700a8c8bf008080fb00a9c8bf0066
:1015d8000080fb004800dd000100700080007800fa
:1015e8001e4090000081fb00408d2000000041005b
:1015f80010407800804878008100e800f00f200053
:1016080000816000a8c8bf00604060000240700010
:10161800a8e8b700c808de00a9c8bf00604060009d
:1016280001407000a9e8b7001e4090000040e800a3
:10163800104798001e4090009e4f5000e1ff39006f
:10164800abc8bf008080fb00acc8bf000080fb00b7
:101658004800dd0001007000e00f50001400320067
:101668009144800080c0b300804878009044800096
:10167800418d20001100980080448000900078007f
:101688000000240000806000e00f500004003a00d1
:101698009144800080ccb30090409800210037002e
:1016a8009144800080c8b300904098001d00370026
:1016b8009144800080c0b300804878009044800046
:1016c800c18c2000110098009144800040c8b300ec
:1016d80090409800adc8bf008080fb00aec8bf0036
:1016e8000080fb004800dd0001007000e00f5000a2
:1016f80007003200adc8bf008080fb00aec8bf0045
:101708000080fb004800dd000100700000000100bf
:10171800aae8a90010468000e00f500001003a0036
:1017280065fe07000080fa00000006000200fa00cb
:10173800a4e8a800420020008000eb00c04a200076
:1017480077fb0700020320008000eb0000a02000c8
:1017580073fb07009424a8000040eb00004f7800ba
:101768000d0037001e4078008080fb00a08b200011
:10177800808040000040eb00804878001e407800e0
:101788008080fb00d08b2000808040000040eb0070
:10179800804878001e4fe8001e407800e24f500055
:1017a800f0ff3600220020008000eb00d0882000e7
:1017b8005bfb07009424a90080a02000d044880087
:1017c80000a0200080448800804480009044880065
:1017d800cec8bf008ce8b7008cc8bf00e04f5000ef
:1017e80003003a000001200050448800060037003a
:1017f80012002000c1882000100020000f060700fa
:1018080000022000504488000080fa000000060012
:101818000000fa00c18c20009140780000c8b30095
:1018280080cf500036003a0000ccb300a4e8b700df
:10183800cfc8bf000080fb00e20f50000900320053
:10184800e30f500018003200e10f500029003a0061
:10185800402a2800104588002001200030458800d3
:1018680027003700cec8bf000080fb000000400002
:101878008000780060362800008040001000780062
:1018880010458800104580000080e800104078006e
:10189800a6e8b700104580006300400010407800bb
:1018a800a7e8b70016003700cec8bf00e24f5000c7
:1018b8000d003e00cec8bf000080fb0000004000c5
:1018c80080007800803628000080400010007800f2
:1018d8001045880010458000104078000080fb000b
:1018e80030458800060037000040eb00a4e8b70048
:1018f800030037000040eb00a4e8b7000000000038
:101908000080fa00000006000200fa000040eb0028
:10191800d4e8b7000040eb00d5e8b700ccc8bf005a
:101928007f4060000080fb00e10f50000f00320094
:10193800e20f50000f003200e00f500037003a006d
:10194800a4e8a800d4c8bf000004a000d4e8b700e9
:1019580090458000e10f50002b003a00d4c8bf002a
:101968000014a000d4e8b7002c003700a4e8a800b1
:101978002a003700a4e8a800018d200091407800d3
:1019880000c8b30000c06000e04f500008003a00f3
:10199800d0c8bf006f4060000080fb00800040009e
:1019a8004089200000804000100f780007003700b1
:1019b800d0c8bf006f4060000080fb00800040007e
:1019c800a089200000804000100f78001e007800d9
:1019d800900078000000280000806000e00f5000b0
:1019e8000b0032001e0078009000780000402000b4
:1019f80000806000e00f50000700320010c0b30004
:101a0800d4e8b700050037000000000003003700e5
:101a180000000000010037000000000021458000a0
:101a28000008200000806000e00f50000500320030
:101a3800408d200010458800a408a80020c0b300ed
:101a4800a6e8b7000080fa00000006000000fa00cf
:101a58005025800062006000e00f50000e00320048
:101a6800804480009040900000c8b30080cf5000b0
:101a780008003a00d04480009040900040c8b3006d
:101a880080cf500003003a0081448000c0c8b300f2
:101a980090409800aa24a90000082000502488003b
:101aa8000080fa00000006000000fa008284a80006
:101ab800000120005024880010002000a045880064
:101ac8000001eb008000eb00500720005b050700d9
:101ad8000080fa00000006000000fa000000eb0099
:101ae800a04588000001eb008000eb0040072000c3
:101af800520507008284a900000120000024880004
:101b08000080fa00000006000200fa00d0c2b3000c
:101b1800c0e8b700b6c8bf008080fb00b0ff2f0048
:101b280000806000e00f500031003a00b6c8bf00e6
:101b38000080fb004200de00004078000080fb00cf
:101b4800c200dd0000a02000008040008044880022
:101b5800804480009044880021892000208920004a
:101b6800104078000024a20080487800804480005b
:101b78009000780000c023008080600000402300af
:101b8800808f500018003a000040eb00004f7800aa
:101b98000d0037001e4078008080fb00c08c2000bc
:101ba8008080400080448000100090001040780041
:101bb8008048780080448000900090008100e80010
:101bc800110098001e4fe8001e407800e74f5000b3
:101bd800f0ff360080448000c18c2000110098007e
:101be8000c00070009003700440007000700370011
:101bf800b6c8bf008080fb00b0ff2f0000806000e7
:101c0800e80f500001003a00550007000080fa0074
:101c1800000006000000fa000040eb00a0e8b70052
:101c28000000eb00104688000000eb0040468800ea
:101c38000000eb00504688000000eb00c04588001b
:101c48000040eb00a1e8b700d1448000d0448000f8
:101c5800104090000074a10090409800a1892000d5
:101c6800a0892000104078000024a2008048780055
:101c7800d1448000d0448000104090000074a1003e
:101c880090409800a1892000a08920001040780089
:101c98000024a2008048780091448000904480008d
:101ca800104090000074a100904098000040eb00a4
:101cb800a4e8b7000000eb00304588000040eb00c6
:101cc800aae8b700abc8bf0060406000abe8b70047
:101cd800acc8bf0060406000ace8b7006c0007000b
:101ce8000001eb008000eb0030002000d304070067
:101cf8007dfd07000080fa00000006000000fa00e1
:101d0800a1c8bf00e24f500002003a0001fe0700e0
:101d1800110037000040eb00a1e8b700c045800083
:101d2800e00f50000a003a009144800080c0b300e0
:101d38008048780090448000c18c200011009800f1
:101d480091448000c0c8b30090409800020037005a
:101d58000000eb00c04588000080fa000000060083
:101d68000200fa00d0448000100078004e00de0027
:101d780061406000004f7800a1892000a089200000
:101d8800104078000024a200804878005044800069
:101d9800e80f50000b003a00cec8bf000080fb00df
:101da800b0248800b0248000e00f50000300320007
:101db8000001200050448800020037004000200045
:101dc80050448800a1c8bf00e14f500016003a00f7
:101dd800d0448000418d20001100980091fd07003b
:101de800a0c8bf00e24f500004003a00d144800070
:101df80040c8b30090409800230037001e40780088
:101e0800e04f500004003a00d144800080ccb30079
:101e1800904098001c003700d144800080c8b3006f
:101e28009040980018003700a18a2000914078005f
:101e380000c8b30000c06000e04f5000100032003e
:101e4800adc8bf008080fb00aec8bf000080fb00ab
:101e58004800dd0001007000e00f5000070032006c
:101e6800adc8bf008080fb00aec8bf000080fb008b
:101e78004800dd000100700000000100aae8a90088
:101e88000040eb00a1e8b7000080fa00000006005f
:101e98000000fa00ccc8bf000046b200e04f500076
:101ea8003f003a00cdc8bf000080fb00cf80de00b5
:101eb800b200200003002000820f5000838f5800da
:101ec80039003e00006001001a0037001b0037008f
:101ed8003700370019003700350037000600370093
:101ee80009003700290037000b00370008003700c9
:101ef800140037001d003700a4e8a8008000200067
:101f0800504488002b00370041fe070029003700a5
:101f180006fe070027003700c0882000104588000b
:101f2800a408a80010c0b300a6e8b700a4e8a80059
:101f38002000370074fe07001e0037001f0007004e
:101f48001c003700d0c8bf008080fb00d08820006c
:101f58000080400010458800a408a80010c0b30005
:101f6800a6e8b700a4e8a80012003700a4e8a80073
:101f7800d0c8bf000081fb00cec8bf00d1882000b8
:101f880081004100804878000a0037000001eb001a
:101f98008000eb002000200028040700050037001f
:101fa80000000000030037000000000001003700b7
:101fb800000000000080fa00000006000600fa0099
:101fc800cec8bf00e14f50000d003a00ccc8bf009a
:101fd8007f406000e04f500009003a00a4e8a800e4
:101fe800cdc8bf00e34f500003003a0010002000a6
:101ff80090458800020037000000eb0090458800fb
:10200800cec8bf00e04f5000eb003a00ccc8bf007c
:102018007f406000e24f5000e7003a00d0c8bf00a0
:102028006f406000e04f5000e3003200d0c8bf00ae
:102038006f4060000080fb00e20f5000de003c00b3
:102048005144800000022000808f5000da003a00de
:10205800a4e8a800018d20009140780000c8b300d2
:1020680000c06000e04f500010003a00d0c8bf0028
:102078006f4060000080fb00800040004089200025
:10208800008040001000780010079800d0c8bf00fa
:102098006f4060008080fb00d08b200000804000f3
:1020a80010407800404798000f003700d0c8bf00a4
:1020b8006f4060000080fb0080004000a089200085
:1020c800008040001000780010079800d0c8bf00ba
:1020d8006f4060008080fb00a08b200000804000e3
:1020e80010407800404798004e40900061406000e2
:1020f800e04f500007003a000e81e8000e80e8002b
:1021080090407800b0cfb30000c06000004978006c
:10211800050037008e80e8000e80e8001040780047
:102128000024a00080487800018d200091407800ac
:1021380000c8b30000c06000e04f500009003a003a
:10214800d0c8bf006f4060000080fb009e00900078
:10215800000140004089200000004100010878008b
:1021680008003700d0c8bf006f4060000080fb0047
:102178009e00900000014000a0892000000041005e
:1021880001087800cdc8bf00e34f500024003a0092
:102198001e00900090007800000028000080600079
:1021a800e00f500017003200018d200091407800a8
:1021b80000c8b30000c06000e04f500009003a00ba
:1021c800d0c8bf006f4060008080fb00d08b20002b
:1021d80080804000114078000014a00080487800fa
:1021e80008003700d0c8bf006f4060008080fb0047
:1021f800a08b200080804000114078000014a000cf
:10220800804878001e0190001e00900090409000c9
:1022180040c8b30000c07000104198006600370045
:102228008e80e8000e80e800104078000024a200ac
:10223800804878001e009000900078000000280078
:1022480000806000e00f5000110032009e009000f6
:102258001e009000104090000074a100904098006b
:102268001e0190001e0090009040900000c4b30032
:1022780000c07000104198001e009000220020004d
:1022880080007800500020006c030700060037002b
:102298001e0190001e0090009040900000c4b30002
:1022a80000c07000104198008e80e8000e80e800a1
:1022b800104078000024a200804878004e4090002a
:1022c80062406000e04f500006003a001e00900097
:1022d800900078000000280000806000e00f5000a7
:1022e80024003200018d20009140780000c8b3001e
:1022f80000c06000e04f50000a003a00d0c8bf009c
:102308006f4060008080fb00d08b2000008140007f
:1023180092407800d0cfb30000c060000049780038
:1023280009003700d0c8bf006f4060008080fb0004
:10233800a08b20000081400092407800d0cfb300ed
:1023480000c06000004978009e0090001e009000c8
:1023580010409000b043b200904098001e009000da
:10236800220020008000780050002000330307007e
:10237800050037009e0090001e009000104090005d
:10238800b043b20090409800a14a2000d0c8bf00d6
:102398006f4060000080fb0000004000008f40009c
:1023a8001e00780090407800d0cfb30000c06000d5
:1023b8009e007800804878000080fa00000006003f
:1023c8000000fa00ccc8bf007f406000e14f500019
:1023d80074003a00ccc8bf0002c6b3008240600057
:1023e80000c2b30080cf500070003a00d0c8bf00d0
:1023f800e04f500003003200d0c8bf00e14f50004a
:102408006c003a00cdc8bf000080fb00cf80de0022
:102418002202200003002000820f5000838f580002
:1024280066003e00006001002200370028003700e7
:10243800640037006300370062003700610037002e
:10244800600037005f0037005e0037005d0037002e
:102458005c0037005b0037005a003700590037002e
:10246800580037005700370056003700550037002e
:10247800540037005300370052003700510037002e
:10248800500037004f0037004e0037004d0037002e
:102498004c0037004b0037004a003700490037002e
:1024a80048003700470037000d003700320037007a
:1024b80038003700608f2000104588008000200019
:1024c80030458800a408a800a4e8a8003e0037000a
:1024d800608f200010458800a4e8a8003a00370063
:1024e800d2c8bf008080fb00d3c8bf000080fb00bb
:1024f8004800dd000100700080007800f00f200027
:1025080000816000abc8bf006040600002407000fe
:10251800abe8b700c808de00acc8bf006040600088
:1025280001407000ace8b700c18d2000f00f20001a
:1025380000816000a8c8bf006040600002407000d1
:10254800a8e8b700c808de00a9c8bf00604060005e
:1025580001407000a9e8b700adc8bf006040600046
:10256800ade8b700aec8bf0060406000aee8b70095
:10257800aae8a80014003700c08d20001045880084
:10258800700020003045880010ccb300a4e8b700e4
:102598000d003700cec8bf00f0e8b700a4e8a800d7
:1025a80009003700000000000700370000000000a5
:1025b800050037000000000003003700000000009d
:1025c80001003700000000000080fa00000006004b
:1025d8000000fa0000b0240001002000e046880056
:1025e800f14688000040eb00e0e8b7000040eb004f
:1025f800e1e8b70080c0b300e2e8b7000040eb00b4
:10260800e4e8b70051c1b30010c0b30081f9070076
:10261800d1c1b30020c0b3007ef9070003c4b300e2
:10262800e29320008040eb0020c0b30096f9070039
:10263800604788000000eb00704788000040eb000e
:10264800e5e8b7000080fa00000006000600fa007e
:10265800000f780011079800220798001e007800e4
:10266800e50f500014003a00604780009e0090007b
:10267800808f500006003a0003c4b300e2932000a4
:102688008040eb0020c0b3007ff907006047880056
:10269800704780009e009000808f500004003a0030
:1026a8000040eb00e5e8b7000040eb00eae8b700bf
:1026b80010002000010037000000eb000080fa0045
:1026c800000006000400fa00000f78002147980077
:1026d8000040eb00e4e8b70060478000e00f5000de
:1026e8000600320060478000900078000000280053
:1026f80000806000e00f500021003a006047800031
:10270800904078002e40900080cf500003003100a8
:102718006047800090407800214798000040eb0017
:10272800e4e8b7000b003700e4c8bf000080fb00f6
:102738009e004000e4c8bf000080fb00e293200038
:102748006240780080487800e4c8bf000040e80094
:10275800e4e8b700418e2000914078002e409000b8
:1027680080cf5000f0ff390003c4b300e29320008b
:102778008040eb0020c0b30043f9070060478800a1
:10278800e4c8bf000080fa00000006000400fa0058
:10279800000f7800214798009ec0a900e5c8bf0037
:1027a800e04f500008003a001e00780030478800cb
:1027b8002e409000eae8b70010c0b300ebe8b7007d
:1027c80010c0b300e5e8b7009ec0a8000080fa007a
:1027d800000006000600fa00200798009ec0a90025
:1027e800e5c8bf00e04f5000020032009ec0a800bc
:1027f8001e0037000040eb00004f78002e009000cc
:10280800100798001e4fe8001e407800e14f400076
:102818000c0032001e009000104078000080fb0081
:102828000000ea004f00de00004078009e009000a3
:102838008100e80011079800e04f5000f1ff3a00ce
:1028480001003700000000002e009000304788008b
:102858001e407800eae8b70010c0b300ebe8b70004
:1028680010c0b300e5e8b7009ec0a8000080fa00d9
:10287800000006000600fa00200798009ec0a90084
:10288800e5c8bf00e04f5000020032009ec0a8001b
:102898001e0037000040eb00004f78002e0090002b
:1028a800100798001e4fe8001e407800e14f4000d6
:1028b8000c0032001e009000104078000080fb00e1
:1028c8000000ea004f00de00004078009e00900003
:1028d8008100e80011079800e04f5000f1ff3a002e
:1028e80001003700000000002e00900030478800eb
:1028f8001e407800eae8b7000040eb00ebe8b700bc
:1029080010c0b300e5e8b7009ec0a8000080fa0038
:10291800000006000200fa009ec0a900704780006f
:10292800e00f5000080032007047800090007800e7
:102938000000280000806000e00f50000200320014
:102948009ec0a80062003700e5c8bf00e34f5000f2
:1029580002003a000040eb00e5e8b700e5c8bf0018
:10296800e04f500002003a009ec0a800580037000f
:10297800e5c8bf00e24f500009003a008041eb0073
:102988000001eb0011c0b30020c0b300bef807007f
:102998007047880030c0b300e5e8b7004b00370047
:1029a800e5c8bf00e14f500048003a00a18e200062
:1029b8009140780000c4b30080cf50000300360077
:1029c80000c4b300004f780002003700eac8bf0017
:1029d800004f7800eac8bf001e405000eae8b70080
:1029e800e08f2000404788001e407800104798007c
:1029f800ebc8bf00e04f50001f003a000d00370041
:102a080041478000304780001040780080487800b7
:102a1800404780000000e8004047880030478000b9
:102a28000000e800304788001e4090000040e900a0
:102a3800104798001e409000e04f5000f0ff3a0009
:102a48001000370041478000304780001040780070
:102a580080487800404780000000e8004047880030
:102a6800304780000000e800304788001e40900092
:102a78000040e900104798001e409000e04f5000c9
:102a8800f0ff3a00eac8bf00e04f500009003a00e2
:102a980000c4b3009e40780080cf500003003a0085
:102aa80020c0b300e5e8b7000200370030c0b3002b
:102ab800e5e8b7009e417800e28f200011c0b3001e
:102ac80020c0b30070f80700704788009ec0a800b7
:102ad8000080fa00000006000000fa000a00070063
:102ae8002024800068006000e00f500004003200dd
:102af80050448000e00f500001003a0052f90700ee
:102b080023000700f6ff37000000fa000080eb0002
:102b18006019880003000700f9f607000080fa0032
:102b2800000006000000fa000040eb0084e8b7004f
:102b38000000eb00104488001000200000448800ca
:102b4800a1178000f0e12f0000806000a017880026
:102b580081178000f0e12f00008060008017880056
:102b680061178000f0fc2f0000806000601788006b
:102b780041178000f0fc2f0000806000401788009b
:102b8800d8c2a800d8e2a8000080fa000000060019
:102b98000200fa005400070050448000ff0f500064
:102ba8004c0036004024800062006000e00f5000b6
:102bb8004a003a0010448000e00f50000b00320039
:102bc80000448000e00f50000a003a00e5c8bf004a
:102bd800e04f500007003a00e036280025ff0700c4
:102be8001000200000448800020037000000eb00bd
:102bf80000448800e5c8bf00e04f500033003a00a9
:102c080001c4b30000842000aefe070010479800fe
:102c18001e409000e04f50002c0032000040eb00b6
:102c2800004f7800220037001e4078008080fb00ab
:102c38000084200000804000104078000000fb0065
:102c4800ea0f500002003200ed0f50000b003a006e
:102c58001e4078000081fb001e4078008080fb0049
:102c6800008420000080400010407800018020008f
:102c780081004100804878000c0037001e40780031
:102c88000081fb001e4078008080fb00008420004b
:102c980000804000104078000040e80001802000db
:102ca8008100410080487800000000001e4fe800c5
:102cb8001e4090009e40780080cf5000daff390017
:102cc8009e40900000802000b0fe070011ff070022
:102cd800030037000000000001003700000000007a
:102ce8000080fa00000006000000fa00404480005e
:102cf800e00f500002003a000071220040448800b2
:102d0800404480000000e9004044880040248000de
:102d180062006000e00f500016003200404480005e
:102d2800e00f50006b003a00811780000018200067
:102d3800008068008017880081178000f0e72f0066
:102d480000806000e00f500005003200811780000d
:102d58000006200000807000801788005d003700a2
:102d680081178000f0f92f0000806000801788002c
:102d78005800370050448000e00f500009003a0026
:102d880081178000f0e72f0000806000801788001e
:102d980081178000f0f92f000080600080178800fc
:102da8004c00370050448000e10f500009003a0001
:102db80081178000001820000080700080178800ac
:102dc80081178000000620000080700080178800ae
:102dd8004000370050448000e20f500009003a00dc
:102de800811780000018200000807000801788007c
:102df80081178000f0f92f0000806000801788009c
:102e08003400370050448000e40f500009003a00b5
:102e180081178000f0e72f0000806000801788008d
:102e2800811780000006200000807000801788004d
:102e38002800370050448000f00f50000c003a0082
:102e480040448000e00f500022003a0081178000c3
:102e58000018200000806800801788008117800013
:102e6800f0f92f00008060008017880019003700f3
:102e78005144800000022000808f500015003a0065
:102e880040448000e00f500012003a008117800093
:102e980000182000008068008017880081178000d3
:102ea800f0e72f0000806000e00f500005003200be
:102eb80081178000f0f92f000080600080178800db
:102ec8000400370081178000000620000080700091
:102ed800801788000080fa00000006000000fa0051
:102ee8008a0007000080fa00000006000000fa00cf
:102ef8000080fa00000006000000fa00d0168000ea
:102f08004600de00614060008080fb0010448000c5
:102f1800808f500012003a0084c8bf00e04f500074
:102f28000400320084c8bf000040e90084e8b7000c
:102f380011003700d1168000000420008080600056
:102f480010002000e08f5000010032000000eb006c
:102f58001044880040c6b30084e8b7000600370074
:102f680084c8bf00e04f50000300320084c8bf008f
:102f78000040e90084e8b7000080fa00000006007d
:102f88000000fa000080fa00000006000000fa00c5
:102f98000bfd07000080fa00000006000000fa00a0
:102fa8000080fa00000006000000fa0088fd070013
:102fb8000080fa00000006000000fa00904580003a
:102fc800e10f50001b003a00a0458000e10f5000bf
:102fd80018003a009ec0a900c4ff07008824a90071
:102fe8000000eb00a045880000e120003044880084
:102ff800304480000000e9003044880030448000fc
:10300800e00f5000faff3a009444a80080702000b6
:1030180030448800304480000000e90030448800d3
:1030280030448000e00f5000faff3a009444a900b1
:103038009ec0a8000080fa00000006000600fa0002
:10304800000f780011079800220798001e007800ea
:1030580021072000810f500028003200210720009e
:10306800810f50000a003c00e20f50001d003200a2
:10307800e20f500003003c00e10f5000170032003f
:103088001f003700e30f5000180032001c00370003
:1030980041072000810f50000e0032004107200038
:1030a800810f50000700350051072000810f5000a4
:1030b80006003200f1ff2700810f50000d0032009a
:1030c8000f0037008cff07000d00370083ff070053
:1030d8000b00370085ff070009003700b2ff070023
:1030e80007003700adff070005003700a7ff0700fe
:1030f80003003700a2ff07000100370000000000ae
:10310800100020000080fa00000006000800fa0005
:1031180080248000000f7800602480001007980049
:103128001024800020079800f00480004600de008c
:1031380061406000604798000000eb008024880030
:103148000000eb00602488000000eb0010248800d9
:103158008ec0a9008284a8000001200000248800f5
:103168009ec0a8000040fe006e40900061406000d4
:103178000080fb00610060004600dd00f204800072
:10318800f1fb2f008100610000807000f0048800ce
:103198001e007800802488001e00900060248800ab
:1031a8002e00900010248800100020000080fa00f3
:0431b800000006000d
:020000040000fa
:1031bc008a0800005200000000000000000a000015
:1031cc003000000000000000fe0800008a00000033
:1031dc0000000000dc0800002200000000000000dd
:1031ec00000800008a000000000000000000000041
:020000040000fa
:020000040005f5
:0457f8009e230000ec
:020000040000fa
:020000040005f5
:0457fc007f3e0000ec
:00000001FF
