:020000040000fa
:080000000002040000000000f2
:020000040000fa
:1000080090020000900200009002000090020000a0
:100018009002000090020000900200009002000090
:100028009002000090020000900200009002000080
:100038009002000090020000900200009002000070
:100048009002000090020000900200009002000060
:100058009002000090020000900200009002000050
:100068009002000090020000900200009002000040
:100078009002000090020000900200009002000030
:100088009002000090020000900200009002000020
:100098009002000090020000900200009002000010
:1000a8009002000090020000900200009002000000
:1000b80090020000900200009002000090020000f0
:1000c80090020000900200009002000090020000e0
:1000d80090020000900200009002000090020000d0
:1000e80090020000900200009002000090020000c0
:1000f80090020000900200009002000090020000b0
:10010800900200009002000090020000900200009f
:10011800900200009002000090020000900200008f
:10012800900200009002000090020000900200007f
:10013800900200009002000090020000900200006f
:10014800900200009002000090020000900200005f
:10015800900200009002000090020000900200004f
:10016800900200009002000090020000900200003f
:1001780090020000900200006e040000900200004f
:10018800900200009002000090020000900200001f
:10019800900200009002000090020000900200000f
:1001a80090020000900200009002000090020000ff
:1001b80090020000900200009002000090020000ef
:1001c80090020000900200009002000090020000df
:1001d80090020000900200009002000090020000cf
:1001e80090020000900200009002000090020000bf
:0801f8009002000090020000db
:020000040000fa
:10020800900200009002000090020000900200009e
:10021800900200009002000090020000900200008e
:10022800900200009002000090020000900200007e
:10023800900200009002000090020000900200006e
:10024800900200009002000090020000900200005e
:10025800900200009002000090020000900200004e
:10026800900200009002000090020000900200003e
:10027800900200009002000090020000900200002e
:10028800900200009002000090020000900200001e
:10029800900200009002000090020000900200000e
:1002a80090020000900200009002000090020000fe
:1002b80090020000900200009002000090020000ee
:1002c80090020000900200009002000090020000de
:1002d80090020000900200009002000090020000ce
:1002e80090020000900200009002000090020000be
:1002f80090020000900200009002000090020000ae
:10030800900200009002000090020000900200009d
:10031800900200009002000090020000900200008d
:10032800900200009002000090020000900200007d
:10033800900200009002000090020000900200006d
:10034800900200009002000090020000900200005d
:10035800900200009002000090020000900200004d
:10036800900200009002000090020000900200003d
:1003780090020000900200006e040000900200004d
:10038800900200009002000090020000900200001d
:10039800900200009002000090020000900200000d
:1003a80090020000900200009002000090020000fd
:1003b80090020000900200009002000090020000ed
:1003c80090020000900200009002000090020000dd
:1003d80090020000900200009002000090020000cd
:1003e80090020000900200009002000090020000bd
:0803f8009002000090020000d9
:020000040000fa
:100400008f9b20000e7f24000e018800000000005a
:100410000c000700e0b521000100200011000700da
:10042000000020000000e000020032000000020096
:1004300000000000f0180200000000000040da0098
:100440000000fe004440a900a00d20000000e000d4
:100450000300320000002000a00188004440a800f2
:100460000000060091018800800078000000eb0089
:1004700015003700e280400032a0b4009101ba00bc
:10048000e280400032a0b4009102ba00e280400055
:1004900032a0b4000002eb00472bde00f507b200eb
:1004a000602ce10004003a000059eb008301e900f0
:1004b000fdff3e00040037006128e100010032002a
:1004c0000082eb00040007001101ba000200e00006
:1004d000e8ff3a00000006003159ba008301e90044
:1004e0000c0032002159ba008301e90008003200f3
:1004f0000400e00003003a00e280400032a0b400b3
:10050000f5ff370011d9ba008301e900faff3a007c
:100510008100e800e180400032a0b4000000060045
:100520000040da000000fe00800178000200370081
:1005300081597800040178000202e900e00f5100bf
:08054000fbff3a000000060079
:020000040000fa
:100548001201000000020000020000000008000084
:10055800d80400000a0000000001000001020000a9
:100568000001000009020000430000000201000031
:1005780000c0000032090000040000000001000073
:100588000202000001000000052400000010000025
:1005980001040000240200000205000024060000f7
:1005a8000001000005240000010000000107000010
:1005b8000581000003080000000200000904000093
:1005c80001000000020a000000000000000700000f
:1005d80005020000024000000000000007050000be
:1005e8008202000040000000000000000403000038
:1005f80009040000340300004d00000069000000f9
:1006080063000000720000006f000000630000003b
:100618006800000069000000700000002000000071
:10062800540000006500000063000000680000003e
:100638006e0000006f0000006c0000006f000000fa
:100648006700000079000000200000004900000059
:100658006e000000630000002e000000340300005c
:100668004300000044000000430000002000000098
:1006780052000000530000002d000000320000006e
:100688003300000032000000200000004500000098
:100698006d000000750000006c00000061000000a3
:1006a80074000000690000006f0000006e00000088
:1006b8002000000044000000650000006d000000fc
:1006c8006f000000b6820000fa820000fe8200007f
:1006d800328300003031000032330000343500002e
:1006e800363700003839000041420000434400001a
:0406f8004546000073
:020000040000fa
:1006fc000200fa009ec0a9000080eb007024880064
:10070c000080eb00502488000000eb00502588008e
:10071c00420020008000eb00c04a20007fff070051
:10072c0020002000302588000000eb0040258800c8
:10073c008644a900f009200080248800f0092000dc
:10074c00602488008804a800008020004800de0097
:10075c00c02488000040eb00004f780008003700f0
:10076c009e4078000180fb00c200dd00008020006c
:10077c00008140006000b8000089be001e4fe800f8
:10078c001e407800eb4f5000f5ff36009424a80073
:10079c000000eb00b024880094a4a9009424a900c4
:1007ac000c00370080002000502488000040eb0033
:1007bc00d2e8b7000040eb00d8e8b700d9c8bf00ba
:1007cc0060406000d9e8b700dac8bf006040600044
:1007dc00dae8b7005024800068006000e00f500099
:1007ec00f0ff3a0010002000904788001000200015
:1007fc00a04788000000eb00b04788000000eb0029
:10080c00c04788000000eb00104788000040eb0058
:10081c00004f78001b0037009e4078000180fb00e1
:10082c0080004000808c2000008040008000eb00a5
:10083c00010878009e4078000180fb008000400099
:10084c00208c2000008040008000eb000108780024
:10085c001e4078008080fb00808e2000808040004d
:10086c000040eb00804878001e4078008080fb0040
:10087c00b08e2000808040000040eb008048780063
:10088c001e4fe8001e407800e24f5000e2ff360099
:10089c008080200040468800d00020005025880031
:1008ac00a08f20001040880080c0b30000e8b70083
:1008bc0040c8b30001e8b7000040eb00bae8b7004d
:1008cc000000eb00c04588000080fa000000060024
:1008dc003600f800809fbe00829fbe00849fbe0041
:1008ec00869fbe003400f80000002000a0018800a4
:1008fc000200fa00c0458000e10f50000b003a00e6
:10090c00a12480000004200000806000e00f500053
:10091c0006003a000080eb00502488008c04a800ec
:10092c008c84a80020002000c04588000024800092
:10093c0070006000e00f50000700320010248000af
:10094c0070006000e00f5000030032000001200036
:10095c00002488005c0407004024800062006000d2
:10096c00e00f5000020032008ec0a9009d0037003d
:10097c005024800061006000e00f50000a0032003b
:10098c006024800061006000e00f5000060032001f
:10099c0057ff07009ec0a80040002000c0458800fb
:1009ac00100020005024880050248000700060004b
:1009bc00e00f5000070032006024800070006000df
:1009cc00e00f500003003200330407000001200048
:1009dc00502488005024800064006000e00f500018
:1009ec00140032006024800064006000e00f5000ae
:1009fc0004003200120020008000eb0030072000c1
:100a0c00cd0a07004000200050248800eec8bf002b
:100a1c00e04f500003003200eec8bf000040e90078
:100a2c00eee8b700eec8bf00e04f500001003a00fe
:100a3c009d01070051248000000820000080600008
:100a4c00e00f5000060032006124800000082000f6
:100a5c0000806000e00f500001003200f703070037
:100a6c005024800062006000e00f50000c00320047
:100a7c006024800062006000e00f5000080032002b
:100a8c00120020008000eb00f0ff2700aa0a0700ec
:100a9c000080eb0070248800200020005024880087
:100aac00c0458000e30f500002003e008ec0a9003c
:100abc004c0037006024800068006000e00f50009c
:100acc00470032000040eb00004f78003f00370039
:100adc005024800068006000e00f50003f0032009e
:100aec009024800000407800e4e8b700e4c8bf0020
:100afc000080fb004400de0000407800e5e8b70011
:100b0c008000200050248800e4c8bf0068406000ca
:100b1c00e04f500012003a00e5c8bf000081fb0016
:100b2c008080fb00b08e2000008040009040780058
:100b3c0061c060000004a20061406000b18e200022
:100b4c00810141006140600013417800e1cfb300a6
:100b5c008140610000c070008049780011003700ae
:100b6c00e5c8bf000081fb008080fb00808e200068
:100b7c00008040009040780061c060000004a2003a
:100b8c0061406000818e2000810141006140600065
:100b9c0013417800e1cfb3008140610000c07000c8
:100bac0080497800e5c8bf00e04f500002003a00d1
:100bbc00d1030700040037000001eb00418e200038
:100bcc00200720005c0a07001e4fe8001e4078003a
:100bdc00e34f5000beff360001003700000000005c
:100bec008ec0a9000080fa003400f9004f03be004b
:100bfc004f02be004f01be004f00be003600f90090
:100c0c00004006000400fa00204798003147980085
:100c1c003e4090000080fb0068006000e00f500038
:100c2c00030032008040eb002e4090007a01070058
:100c3c003e4090000080fb0064006000e00f50001c
:100c4c000300320011c0b3002e4090007201070067
:100c5c00a14a20002e4090000080fb0000004000c4
:100c6c00008f40001e007800be40900001487800c4
:100c7c000080fa00000006000800fa0020479800e7
:100c8c003147980022079800634798003e40900037
:100c9c00e04f5000070032002e4090000080fb0017
:100cac0080004000808c200000804000100f7800f5
:100cbc00060037002e4090000080fb0080004000b2
:100ccc00208c200000804000100f78001e0078005f
:100cdc00e00f500002003a000000eb00300037003b
:100cec00ae0090001e007800110098001e007800e5
:100cfc00ee409000014878001e00780010409000f3
:100d0c000044b2009e007800904098001e007800cd
:100d1c009040900080c8b30000c070009e00780026
:100d2c00904098003e409000e04f50000e00320082
:100d3c00818c20002e4090000080fb0000004000c1
:100d4c0080804000828c20002e4090000080fb00b0
:100d5c000000400000004100104078000024a20078
:100d6c00804878000d003700218c20002e40900028
:100d7c000080fb000000400080804000228c20009e
:100d8c002e4090000080fb0000004000000041005d
:100d9c00104078000024a200804878001e007800e3
:100dac000080fa00000006000400fa0020479800ba
:100dbc00314798002e409000e04f50000d003a0053
:100dcc000146800080c0b300804878000046800057
:100ddc00a18f20001100980001468000c0c8b3000c
:100dec00904098004146800040c8b3009040980065
:100dfc00220037002e4090000080fb0000004000d5
:100e0c00800078003e4090000080fb000080400095
:100e1c004300dd008000780000802000008f40003f
:100e2c001e0078009040900040c8b30000c07000d5
:100e3c009e007800904098002e4090000080fb00af
:100e4c0000004000800078003e4090000080fb00d5
:100e5c00008040004300dd00e400400000802000e2
:100e6c00008f40001e0078009040900040c8b300f6
:100e7c0000c070009e007800904098000080fa003e
:100e8c00000006000200fa00004f7800a124800048
:100e9c000002200000806000e00f50005b00320078
:100eac009e4078000180fb0080004000808c200078
:100ebc0000804000100278001e4178000280fb0088
:100ecc0080004000808c20000080400010007800e2
:100edc001001be00000420000100200082027800f6
:100eec0003017800800178000100780083826200a1
:100efc000000610001002000c000dd0000002000a7
:100f0c000001be006128b8000001710081817100f0
:100f1c00028abe009e4178000380fb0080004000e6
:100f2c00808c200000804000100278009e407800e9
:100f3c000180fb0080004000808c2000008040007d
:100f4c00100078001001be000004200001002000f9
:100f5c000000690081806900008abe00818c20003d
:100f6c001e4178000280fb000000400080804000a1
:100f7c00828c20009e4178000380fb000000400022
:100f8c0000004100104078000024a2008048780046
:100f9c009e4078000180fb0080004000808c200087
:100fac0000804000900078001e4178000280fb0019
:100fbc0000014000808c20000000410010007800ef
:100fcc00104090000044b200904098009e41780080
:100fdc000380fb0080004000808c200000804000db
:100fec00100178009e4078000180fb0080004000da
:100ffc00808c200000804000100078009040900011
:10100c0000c4b30000c06800104198000080fa00d2
:10101c00000006000000fa000000eb00a02488008d
:10102c000000eb00602488000000eb00c045880045
:10103c000080fa00000006000000fa00c0458000a5
:10104c00e00f500016003a000000eb00a0248800ce
:10105c000000eb0060248800200020003025880070
:10106c000000eb00402588008644a900f009200010
:10107c0080248800f0092000602488009ec0a8000d
:10108c00010037009404a800a024800061006000d7
:10109c00e00f5000fbff320010002000c04588001c
:1010ac000080fa00000006000000fa009047800063
:1010bc00e00f50002a003a001000200090478800f2
:1010cc00a0478000e00f500025003a0010002000df
:1010dc00a0478800cfc8bf00e24f500007003a007d
:1010ec00414680000040eb0080487800414680007b
:1010fc0080ccb3009040980019003700cfc8bf00d7
:10110c00e14f500016003a000000eb003047880019
:10111c00f145800080c0b30080487800f045800025
:10112c00a18f200011009800f145800040c8b30049
:10113c009040980010002000304788000146800045
:10114c0080c0b3008048780000468000a18f20004a
:10115c00110098000146800000c8b3009040980030
:10116c000080fa00000006000000fa000000eb000e
:10117c00b04788000000eb00c0478800cfc8bf0014
:10118c00e24f50000a003a000146800080c0b300d4
:10119c0080487800004680002190200011009800c3
:1011ac000146800080ccb3009040980018003700b6
:1011bc0000c9bf008080fb0001c9bf000080fb009c
:1011cc004800dd000100700080007800a04680001f
:1011dc00808f50000700310000c9bf008080fb00e9
:1011ec0001c9bf000080fb004800dd000100700059
:1011fc00a046880087000700404680002190200010
:10120c00110098004146800080ccb30090409800bb
:10121c000080fa00000006000400fa002047980045
:10122c003147980000802000000f78002e4090007d
:10123c000080fb0000004000800078003e409000e1
:10124c000080fb00008040004300dd001e0f4000ca
:10125c001e00780010017800f1ff2700810061006a
:10126c00010878003e409000e04f500007003a0023
:10127c002e4090000080fb0080004000208c20005d
:10128c00008040001e087800060037002e409000b9
:10129c000080fb0080004000808c2000008040001b
:1012ac001e0878001e00780010017800f1ff2b005a
:1012bc0081006100010878009e0078006480400085
:1012cc0010017800010024008100710001087800f1
:1012dc000080fa00000006000000fa0094a4a900a7
:1012ec00914680000008200000806000e00f500054
:1012fc001e003a00818d20009140780000c8b30098
:10130c0000c06000e04f50000b00320020c0b30062
:10131c00cfe8b700c0478000e00f500001003a0052
:10132c0091ff07000000eb00a04788000000eb00d5
:10133c0090478800350037000146800080c0b3001c
:10134c008048780000468000a18f20001100980092
:10135c0001468000c0c8b300904098004146800010
:10136c0040c8b3009040980028003700a18f20009f
:10137c009140780000c8b30000c06000e04f5000fe
:10138c000f00320010c0b300cfe8b700b0478000a8
:10139c00e00f500001003a0073ff07000000eb0063
:1013ac00a04788000000eb00904788008047800031
:1013bc00e00f500015003a003bff07001300370008
:1013cc0020c0b300cfe8b7000146800080c0b30056
:1013dc008048780000468000a18f20001100980002
:1013ec000146800040c8b300904098000000eb001c
:1013fc00a04788000000eb009047880080478000e1
:10140c00e00f500001003a0027ff07000080fa00af
:10141c00000006000200fa0080c0b300004f780004
:10142c00a0468000e70f50000d003e00a046800053
:10143c00004f7800cec8bf00e04f500003003a00c8
:10144c0010c0b300cee8b70005003700cec8bf000f
:10145c00e14f500002003a0020c0b300cee8b700c4
:10146c00a14680001e4178000280fb0000805000e5
:10147c00a0468800404680001e487800209020003e
:10148c00f04688009046800061006000e00f50003c
:10149c0017003a0009003700f246800081468000b0
:1014ac0011407800004978000200e800f0468800fe
:1014bc000100e800804688001e4fe9001e407800bd
:1014cc00e04f5000f4ff3a000c003700f246800069
:1014dc008146800011407800004978000200e80045
:1014ec00f04688000100e800804688001e4fe900a5
:1014fc001e407800e04f5000f4ff3a000080fa00e4
:10150c00000006000200fa00f0458000104f780041
:10151c001e4078008080fb00d9c8bf000081fb0012
:10152c00dac8bf000080fb004800dd00020070003c
:10153c00808f500007003600d9c8bf008080fb00a8
:10154c00dac8bf000080fb004800dd00010070001d
:10155c00004f7800d9c8bf008080fb00dac8bf00fc
:10156c000080fb004800dd00010070008000780066
:10157c001e4178000280fb0080805000f00f20009c
:10158c0000816000d9c8bf0060406000024070005c
:10159c00d9e8b700c808de00dac8bf0060406000b8
:1015ac0001407000dae8b7000040eb0010479800eb
:1015bc001c003700d6c8bf008080fb00d7c8bf0016
:1015cc000080fb004800dd00010070008000780006
:1015dc001e4090000081fb00209020000000410084
:1015ec0010407800804878008100e800f00f20005f
:1015fc0000816000d6c8bf006040600002407000ef
:10160c00d6e8b700c808de00d7c8bf00604060004d
:10161c0001407000d7e8b7001e4090000040e80081
:10162c00104798001e4090009e4f5000e1ff39007b
:10163c00d9c8bf008080fb00dac8bf000080fb0067
:10164c004800dd0001007000e00f50001400320073
:10165c000146800080c0b3008048780000468000be
:10166c002190200011009800f04580009000780037
:10167c000000240000806000e00f500004003a00dd
:10168c000146800080ccb3009040980021003700c8
:10169c000146800080c8b300904098001d003700c0
:1016ac000146800080c0b30080487800004680006e
:1016bc00a18f2000110098000146800040c8b300a3
:1016cc0090409800dbc8bf008080fb00dcc8bf00e6
:1016dc000080fb004800dd0001007000e00f5000ae
:1016ec0007003200dbc8bf008080fb00dcc8bf00f5
:1016fc000080fb004800dd000100700000000100cc
:10170c00d8e8a90080478000e00f500001003a00a3
:10171c0065fe07000080fa00000006000200fa00d7
:10172c00d2e8a800420020008000eb00c04a200054
:10173c007afb0700020320008000eb0000802000f1
:10174c0076fb07009424a8000040eb00004f7800c3
:10175c000d0037001e4078008080fb00808e20003a
:10176c00808040000040eb00804878001e407800ec
:10177c008080fb00b08e2000808040000040eb0099
:10178c00804878001e4fe8001e407800e24f500061
:10179c00f0ff3600220020008000eb00b08b200010
:1017ac005efb07009424a90080802000404688003e
:1017bc0000802000f0458800f0458000004688003d
:1017cc00fcc8bf00bae8b700bac8bf00e04f500071
:1017dc0003003a0000012000c045880006003700d5
:1017ec0012002000a18b20001000200052070700df
:1017fc0000022000c04588000080fa0000000600ae
:10180c000000fa00a18f20009140780000c8b300be
:10181c0080cf500036003a0000ccb300d2e8b700bd
:10182c00fdc8bf000080fb00e20f50000900320031
:10183c00e30f500018003200e10f500029003a006d
:10184c00402a28008046880020012000a0468800fd
:10185c0027003700fcc8bf000080fb0000004000e0
:10186c00800078006036280000804000100078006e
:10187c0080468800804680000080e8001040780098
:10188c00d4e8b70080468000630040001040780028
:10189c00d5e8b70016003700fcc8bf00e24f500077
:1018ac000d003e00fcc8bf000080fb0000004000a3
:1018bc0080007800803628000080400010007800fe
:1018cc008046880080468000104078000080fb0035
:1018dc00a0468800060037000040eb00d2e8b700b5
:1018ec00030037000040eb00d2e8b7000000000016
:1018fc000080fa00000006000200fa000040eb0035
:10190c0002e9b7000040eb0003e9b700fac8bf00da
:10191c007f4060000080fb00e10f50000f003200a0
:10192c00e20f50000f003200e00f500037003a0079
:10193c00d2e8a80002c9bf000004a00002e9b70069
:10194c0000478000e10f50002b003a0002c9bf0095
:10195c000014a00002e9b7002c003700d2e8a80060
:10196c002a003700d2e8a800e18f200091407800cf
:10197c0000c8b30000c06000e04f500008003a00ff
:10198c00fec8bf006f4060000080fb00800040007c
:10199c00208c200000804000100f780007003700da
:1019ac00fec8bf006f4060000080fb00800040005c
:1019bc00808c200000804000100f78001e00780002
:1019cc00900078000000280000806000e00f5000bc
:1019dc000b0032001e0078009000780000402000c0
:1019ec0000806000e00f50000700320010c0b30010
:1019fc0002e9b700050037000000000003003700c3
:101a0c00000000000100370000000000914680003b
:101a1c000008200000806000e00f5000050032003c
:101a2c002090200080468800d208a80020c0b30077
:101a3c00d4e8b7000080fa00000006000000fa00ad
:101a4c005025800062006000e00f50000e00320054
:101a5c00f04580009040900000c8b30080cf50004b
:101a6c0008003a00404680009040900040c8b30007
:101a7c0080cf500003003a00f1458000c0c8b3008d
:101a8c0090409800aa24a900000820005024880047
:101a9c000080fa00000006000000fa008284a80012
:101aac0000012000502488001000200010478800fe
:101abc000001eb008000eb00500720009e060700a1
:101acc000080fa00000006000000fa000000eb00a5
:101adc00104788000001eb008000eb00400720005d
:101aec00950607008284a9000001200000248800cc
:101afc000080fa00000006000200fa00d0c2b30019
:101b0c00eee8b700e4c8bf008080fb00b0ff2f00f8
:101b1c0000806000e00f500031003a00e4c8bf00c4
:101b2c000080fb004200de00004078000080fb00db
:101b3c00c200dd000080200000804000f0458800dd
:101b4c00f045800000468800018c2000008c2000ad
:101b5c00104078000024a20080487800f0458000f6
:101b6c009000780000c023008080600000402300bb
:101b7c00808f500018003a000040eb00004f7800b6
:101b8c000d0037001e4078008080fb00a08f2000e5
:101b9c0080804000f04580001000900010407800dc
:101bac0080487800f0458000900090008100e800ab
:101bbc00110098001e4fe8001e407800e74f5000bf
:101bcc00f0ff3600f0458000a18f20001100980036
:101bdc000c0007000900370044000700070037001d
:101bec00e4c8bf008080fb00b0ff2f0000806000c5
:101bfc00e80f500001003a00550007000080fa0081
:101c0c00000006000000fa000040eb00cee8b70030
:101c1c000000eb00804788000000eb00b047880014
:101c2c000000eb00c04788000000eb003047880044
:101c3c000040eb00cfe8b7004146800040468000f2
:101c4c00104090000074a10090409800818c2000fe
:101c5c00808c2000104078000024a200804878007e
:101c6c004146800040468000104090000074a10066
:101c7c0090409800818c2000808c200010407800cf
:101c8c000024a200804878000146800000468000b5
:101c9c00104090000074a100904098000040eb00b0
:101cac00d2e8b7000000eb00a04688000040eb0033
:101cbc00d8e8b700d9c8bf0060406000d9e8b700c9
:101ccc00dac8bf0060406000dae8b7006c000700bb
:101cdc000001eb008000eb0030002000160607002e
:101cec007dfd07000080fa00000006000000fa00ed
:101cfc00cfc8bf00e24f500002003a0001fe0700bf
:101d0c00110037000040eb00cfe8b70030478000ef
:101d1c00e00f50000a003a000146800080c0b3007a
:101d2c008048780000468000a18f200011009800a8
:101d3c0001468000c0c8b3009040980002003700f4
:101d4c000000eb00304788000080fa00000006001d
:101d5c000200fa0040468000100078004e00de00c1
:101d6c0061406000004f7800818c2000808c200046
:101d7c00104078000024a20080487800c045800004
:101d8c00e80f50000b003a00fcc8bf000080fb00bd
:101d9c00b0248800b0248000e00f50000300320013
:101dac0000012000c04588000200370040002000e0
:101dbc00c0458800cfc8bf00e14f500016003a0064
:101dcc0040468000219020001100980091fd0700f2
:101ddc00cec8bf00e24f500004003a0041468000dc
:101dec0040c8b30090409800230037001e40780094
:101dfc00e04f500004003a004146800080ccb30014
:101e0c00904098001c0037004146800080c8b30009
:101e1c009040980018003700818d20009140780088
:101e2c0000c8b30000c06000e04f5000100032004a
:101e3c00dbc8bf008080fb00dcc8bf000080fb005b
:101e4c004800dd0001007000e00f50000700320078
:101e5c00dbc8bf008080fb00dcc8bf000080fb003b
:101e6c004800dd000100700000000100d8e8a90066
:101e7c000040eb00cfe8b7000080fa00000006003d
:101e8c000000fa00fac8bf000046b200e04f500054
:101e9c003f003a00fbc8bf000080fb00cf80de0093
:101eac00b200200003002000820f5000838f5800e6
:101ebc0039003e00006001001a0037001b0037009b
:101ecc00370037001900370035003700060037009f
:101edc0009003700290037000b00370008003700d5
:101eec00140037001d003700d2e8a8008000200045
:101efc00c04588002b00370041fe07002900370041
:101f0c0006fe070027003700a08b200080468800c3
:101f1c00d208a80010c0b300d4e8b700d2e8a800db
:101f2c002000370074fe07001e0037001f0007005a
:101f3c001c003700fec8bf008080fb00b08b200067
:101f4c000080400080468800d208a80010c0b30072
:101f5c00d4e8b700d2e8a80012003700d2e8a800f5
:101f6c00fec8bf000081fb00fcc8bf00b18b200085
:101f7c0081004100804878000a0037000001eb0026
:101f8c008000eb00200020006b05070005003700e7
:101f9c0000000000030037000000000001003700c3
:101fac00000000000080fa00000006000600fa00a5
:101fbc00fcc8bf00e14f50000d003a00fac8bf004a
:101fcc007f406000e04f500009003a00d2e8a800c2
:101fdc00fbc8bf00e34f500003003a001000200084
:101fec0000478800020037000000eb000047880023
:101ffc00fcc8bf00e04f5000eb003a00fac8bf002d
:10200c007f406000e24f5000e7003a00fec8bf007e
:10201c006f406000e04f5000e3003200fec8bf008c
:10202c006f4060000080fb00e20f5000de003c00bf
:10203c00c145800000022000808f5000da003a0079
:10204c00d2e8a800e18f20009140780000c8b300ce
:10205c0000c06000e04f500010003a00fec8bf0006
:10206c006f4060000080fb0080004000208c20004e
:10207c00008040001000780010079800fec8bf00d8
:10208c006f4060008080fb00b08e2000008040001c
:10209c0010407800404798000f003700fec8bf0082
:1020ac006f4060000080fb0080004000808c2000ae
:1020bc00008040001000780010079800fec8bf0098
:1020cc006f4060008080fb00808e2000008040000c
:1020dc0010407800404798004e40900061406000ee
:1020ec00e04f500007003a000e81e8000e80e80037
:1020fc0090407800b0cfb30000c060000049780079
:10210c00050037008e80e8000e80e8001040780053
:10211c000024a00080487800e18f200091407800d6
:10212c0000c8b30000c06000e04f500009003a0046
:10213c00fec8bf006f4060000080fb009e00900056
:10214c0000014000208c20000000410001087800b4
:10215c0008003700fec8bf006f4060000080fb0025
:10216c009e00900000014000808c20000000410087
:10217c0001087800fbc8bf00e34f500024003a0070
:10218c001e00900090007800000028000080600085
:10219c00e00f500017003200e18f200091407800d2
:1021ac0000c8b30000c06000e04f500009003a00c6
:1021bc00fec8bf006f4060008080fb00b08e200026
:1021cc0080804000114078000014a0008048780006
:1021dc0008003700fec8bf006f4060008080fb0025
:1021ec00808e200080804000114078000014a000f8
:1021fc00804878001e0190001e00900090409000d6
:10220c0040c8b30000c07000104198006600370051
:10221c008e80e8000e80e800104078000024a200b8
:10222c00804878001e009000900078000000280084
:10223c0000806000e00f5000110032009e00900002
:10224c001e009000104090000074a1009040980077
:10225c001e0190001e0090009040900000c4b3003e
:10226c0000c07000104198001e0090002200200059
:10227c008000780050002000af04070006003700f3
:10228c001e0190001e0090009040900000c4b3000e
:10229c0000c07000104198008e80e8000e80e800ad
:1022ac00104078000024a200804878004e40900036
:1022bc0062406000e04f500006003a001e009000a3
:1022cc00900078000000280000806000e00f5000b3
:1022dc0024003200e18f20009140780000c8b30048
:1022ec0000c06000e04f50000a003a00fec8bf007a
:1022fc006f4060008080fb00b08e200000814000a9
:10230c0092407800d0cfb30000c060000049780044
:10231c0009003700fec8bf006f4060008080fb00e2
:10232c00808e20000081400092407800d0cfb30016
:10233c0000c06000004978009e0090001e009000d4
:10234c0010409000b043b200904098001e009000e6
:10235c002200200080007800500020007604070046
:10236c00050037009e0090001e0090001040900069
:10237c00b043b20090409800a14a2000fec8bf00b4
:10238c006f4060000080fb0000004000008f4000a8
:10239c001e00780090407800d0cfb30000c06000e1
:1023ac009e007800804878000080fa00000006004b
:1023bc000000fa00fac8bf007f406000e14f5000f7
:1023cc0074003a00fac8bf0002c6b3008240600035
:1023dc0000c2b30080cf500070003a00fec8bf00ae
:1023ec00e04f500003003200fec8bf00e14f500028
:1023fc006c003a00fbc8bf000080fb00cf80de0001
:10240c002202200003002000820f5000838f58000e
:10241c0066003e00006001002200370028003700f3
:10242c00640037006300370062003700610037003a
:10243c00600037005f0037005e0037005d0037003a
:10244c005c0037005b0037005a003700590037003a
:10245c00580037005700370056003700550037003a
:10246c00540037005300370052003700510037003a
:10247c00500037004f0037004e0037004d0037003a
:10248c004c0037004b0037004a003700490037003a
:10249c0048003700470037000d0037003200370086
:1024ac0038003700409220008046880080002000d1
:1024bc00a0468800d208a800d2e8a8003e00370049
:1024cc004092200080468800d2e8a8003a003700ed
:1024dc0000c9bf008080fb0001c9bf000080fb0069
:1024ec004800dd000100700080007800f00f200033
:1024fc0000816000d9c8bf006040600002407000dd
:10250c00d9e8b700c808de00dac8bf006040600038
:10251c0001407000dae8b700a1902000f00f200015
:10252c0000816000d6c8bf006040600002407000af
:10253c00d6e8b700c808de00d7c8bf00604060000e
:10254c0001407000d7e8b700dbc8bf0060406000f6
:10255c00dbe8b700dcc8bf0060406000dce8b70017
:10256c00d8e8a80014003700a0902000804688000e
:10257c0070002000a046880010ccb300d2e8b70051
:10258c000d003700fcc8bf001ee9b700d2e8a80058
:10259c0009003700000000000700370000000000b1
:1025ac0005003700000000000300370000000000a9
:1025bc0001003700000000000080fa000000060057
:1025cc000000fa0000b024000100200050488800f0
:1025dc00614888000040eb000ee9b7000040eb00ba
:1025ec000fe9b70080c0b30010e9b7000040eb0062
:1025fc0012e9b70051c1b30010c0b30081f9070054
:10260c00d1c1b30020c0b3007ef9070003c4b300ee
:10261c00e29620008040eb0020c0b30096f9070042
:10262c00d04888000000eb00e04888000040eb0038
:10263c0013e9b7000080fa00000006000600fa005b
:10264c00000f780011079800220798001e007800f0
:10265c00e50f500014003a00d04880009e00900016
:10266c00808f500006003a0003c4b300e2962000ad
:10267c008040eb0020c0b3007ff90700d0488800f1
:10268c00e04880009e009000808f500004003a00cb
:10269c000040eb0013e9b7000040eb0018e9b7006d
:1026ac0010002000010037000000eb000080fa0051
:1026bc00000006000400fa00000f78002147980083
:1026cc000040eb0012e9b700d0488000e00f50004a
:1026dc0006003200d04880009000780000002800ee
:1026ec0000806000e00f500021003a00d0488000cc
:1026fc00904078002e40900080cf500003003100b5
:10270c00d048800090407800214798000040eb00b2
:10271c0012e9b7000b00370012c9bf000080fb00a4
:10272c009e00400012c9bf000080fb00e296200012
:10273c00624078008048780012c9bf000040e80071
:10274c0012e9b70021912000914078002e409000b2
:10275c0080cf5000f0ff390003c4b300e296200094
:10276c008040eb0020c0b30043f90700d04888003c
:10277c0012c9bf000080fa00000006000400fa0035
:10278c00000f7800214798009ec0a90013c9bf0014
:10279c00e04f500008003a001e007800a048880066
:1027ac002e40900018e9b70010c0b30019e9b7002b
:1027bc0010c0b30013e9b7009ec0a8000080fa0057
:1027cc00000006000600fa00200798009ec0a90031
:1027dc0013c9bf00e04f5000020032009ec0a80099
:1027ec001e0037000040eb00004f78002e009000d8
:1027fc00100798001e4fe8001e407800e14f400083
:10280c000c0032001e009000104078000080fb008d
:10281c000000ea004f00de00004078009e009000af
:10282c008100e80011079800e04f5000f1ff3a00da
:10283c0001003700000000002e009000a048880026
:10284c001e40780018e9b70010c0b30019e9b700b2
:10285c0010c0b30013e9b7009ec0a8000080fa00b6
:10286c00000006000600fa00200798009ec0a90090
:10287c0013c9bf00e04f5000020032009ec0a800f8
:10288c001e0037000040eb00004f78002e00900037
:10289c00100798001e4fe8001e407800e14f4000e2
:1028ac000c0032001e009000104078000080fb00ed
:1028bc000000ea004f00de00004078009e0090000f
:1028cc008100e80011079800e04f5000f1ff3a003a
:1028dc0001003700000000002e009000a048880086
:1028ec001e40780018e9b7000040eb0019e9b7006a
:1028fc0010c0b30013e9b7009ec0a8000080fa0016
:10290c00000006000200fa009ec0a900e04880000a
:10291c00e00f500008003200e04880009000780082
:10292c000000280000806000e00f50000200320020
:10293c009ec0a8006200370013c9bf00e34f5000cf
:10294c0002003a000040eb0013e9b70013c9bf00c6
:10295c00e04f500002003a009ec0a800580037001b
:10296c0013c9bf00e24f500009003a008041eb0050
:10297c000001eb0011c0b30020c0b300bef807008b
:10298c00e048880030c0b30013e9b7004b003700b3
:10299c0013c9bf00e14f500048003a00819120005c
:1029ac009140780000c4b30080cf50000300360083
:1029bc0000c4b300004f78000200370018c9bf00f4
:1029cc00004f780018c9bf001e40500018e9b7002e
:1029dc00e0922000b04888001e4078001047980014
:1029ec0019c9bf00e04f50001f003a000d0037001e
:1029fc00b1488000a04880001040780080487800e2
:102a0c00b04880000000e800b0488800a048800072
:102a1c000000e800a04888001e4090000040e9003b
:102a2c00104798001e409000e04f5000f0ff3a0015
:102a3c0010003700b1488000a0488000104078009a
:102a4c0080487800b04880000000e800b04888005a
:102a5c00a04880000000e800a04888001e409000bc
:102a6c000040e900104798001e409000e04f5000d5
:102a7c00f0ff3a0018c9bf00e04f500009003a00bf
:102a8c0000c4b3009e40780080cf500003003a0091
:102a9c0020c0b30013e9b7000200370030c0b30008
:102aac0013e9b7009e417800e292200011c0b300f8
:102abc0020c0b30070f80700e04888009ec0a80052
:102acc000080fa00000006000200fa000000eb0093
:102adc00000f780010002000000f78001e00780016
:102aec00004078000080fa00000006000200fa00a6
:102afc000000000031048000000024000080600011
:102b0c00e00f5000fbff3200b0118000004f780046
:102b1c0087c0a9001e4078000080fa000000060063
:102b2c000000fa0040042000c01188000000eb00f7
:102b3c00801188003062a8000000eb009011880022
:102b4c0031e2a8003342a80087c0a9000080fa0037
:102b5c00000006000000fa00310480000000240090
:102b6c0000806000e00f50000200320010c0b30083
:102b7c00010037000040eb000080fa000000060066
:102b8c000400fa0010079800020037001e4078007d
:102b9c000f0007001e00900010407800004f7800d6
:102bac009e4078000180fb000000ea004f00de0030
:102bbc00004078009e0090008100e800110798000a
:102bcc00e04f5000f1ff3a000080fa0000000600d0
:102bdc000200fa00004f78001e00fb00a0118800d4
:102bec0000000000000000000000000091118000b7
:102bfc000010200000806000e00f5000fbff32004e
:102c0c000080fa00000006000400fa00204798003b
:102c1c000040eb00004f78002e40900010479800c9
:102c2c009e40900030c6b30080cf50000b003600a1
:102c3c001e4090008080fb004006200000017800c0
:102c4c00110009008280d800004078000043b000d9
:102c5c00dfff070010c0b300004f78001e4090004b
:102c6c008080fb0040062000000178001100090064
:102c7c008280d80000407800c1f92f000180b90093
:102c8c0000007800004078009e40900000c040009a
:102c9c00104798001e409000e94f500003003e0082
:102cac001e407800e14f500009003a001e40900091
:102cbc008080fb00a00020000001780011000900ba
:102ccc008280d800004078000043b000c0ff0700ad
:102cdc001e4090008080fb00a000200000017800c6
:102cec00110009008280d8000040780061ff2f009d
:102cfc000180b90000007800004078009e409000f0
:102d0c0000c04000104798001e4090000043b000e7
:102d1c00afff07000080fa00000006000400fa0074
:102d2c00100798001e009000000f78001e00900005
:102d3c004480de006f00600010079800e136280028
:102d4c001e0090000080400010407800a0ff07009b
:102d5c009e0078006f80600010079800e136280014
:102d6c001e009000008040001040780098ff070083
:102d7c000080fa00000006000400fa00100798001a
:102d8c001e0090004c00de00000f7800e03628009a
:102d9c001e004000104078008dff07001e009000c0
:102dac004800de006f0f6000e03628001e00400077
:102dbc001040780086ff07001e0090004400de00e3
:102dcc006f0f6000e03628001e00400010407800b5
:102ddc007fff07001e0090006f0f6000e036280098
:102dec001e0040001040780079ff07000080fa00b8
:102dfc00000006000800fa00200798003107980030
:102e0c002e009000be0090004c08de000100200057
:102e1c00008fbe00e03628001e00400010407800f5
:102e2c006bff07002e009000be0090004809de00ea
:102e3c0003002000f00020000100200002027800b6
:102e4c008301780000017800010078000201620023
:102e5c000080610001002000c000dd0000002000a7
:102e6c00008fbe006110b8001e1f70001e9770000e
:102e7c00e03628001e0040001040780054ff070088
:102e8c002e009000be0090004409de0003002000dc
:102e9c00f00020000100200002027800830178007d
:102eac0000017800010078000201620000806100de
:102ebc0001002000c000dd0000002000008fbe00db
:102ecc006110b8001e1f70001e977000e0362800bd
:102edc001e004000104078003dff07002e009000bf
:102eec00be0090004009de0003002000f00020002e
:102efc0001002000020278008301780000017800b4
:102f0c0001007800020162000080610001002000d5
:102f1c00c000dd0000002000008fbe006110b80072
:102f2c001e1f70001e977000e03628001e00400027
:102f3c001040780026ff07002e009000be00900085
:102f4c00cc09de00440add004c01de0002017200f7
:102f5c00f0002000010020000202780083017800bc
:102f6c00000178000100780002016200008061001d
:102f7c0001002000c000dd0000002000008fbe001a
:102f8c006110b8001e1f70001e977000e0362800fc
:102f9c001e004000104078000dff07002e0090002e
:102fac00be009000c809de00480add004801de00c2
:102fbc0002017200f00020000100200002027800e3
:102fcc0083017800000178000100780002016200a2
:102fdc000080610001002000c000dd000000200026
:102fec00008fbe006110b8001e1f70001e9770008d
:102ffc00e03628001e00400010407800f4fe070068
:10300c002e009000be009000c409de004c0add00ca
:10301c004401de0002017200f000200001002000db
:10302c00020278008301780000017800010078002a
:10303c00020162000080610001002000c000dd0080
:10304c0000002000008fbe006110b8001e1f700031
:10305c001e977000e03628001e00400010407800db
:10306c00dbfe07002e019000be019000f000200056
:10307c000100200002027800830178000001780032
:10308c000100780002016200008061000100200054
:10309c00c000dd0000002000008fbe006110b800f1
:1030ac001e1f70001e977000e03628001e004000a6
:1030bc0010407800c6fe07000080fa0000000600f1
:1030cc000200fa00004f780060c6b3009e40780002
:1030dc0080cf5000020034000040eb002500370088
:1030ec0000c6b3009e40780080cf5000040034002e
:1030fc009e40780090cab30000c040001d0037000d
:10310c0060c4b3009e40780080cf500002003400b1
:10311c000040eb001700370000c4b3009e4078005d
:10312c0080cf5000040034009e40780090ccb30057
:10313c0000c040000f00370090c3b3009e407800e1
:10314c0080cf5000020034000040eb000900370033
:10315c00f0c2b3009e40780080cf500004003400d1
:10316c009e40780000cdb30000c040000100370045
:10317c000040eb000080fa00000006000400fa009a
:10318c00204798002e4090006f4f60001e40780042
:10319c00e94f5000030034001e4078007043b0002b
:1031ac00020037001e4078000043b0000080fa0097
:1031bc00000006000000fa00901180006200600020
:1031cc00e00f5000010032003222a9000080fa000a
:1031dc00000006000000fa000a000700202480000e
:1031ec0068006000e00f500004003200c045800011
:1031fc00e00f500001003a008ff707003b0007007a
:10320c00f6ff37000000fa000080eb006019880020
:10321c000300070036f507000080fa0000000600e6
:10322c000200fa00160007000040eb00004f780087
:10323c00070037001e4078008080fb0000832000d0
:10324c00808040000040eb00804878001e4fe80072
:10325c00f0c3b3009e40780080cf5000f5ff3600dd
:10326c000040eb00b0e8b7000040eb00b1e8b7005d
:10327c000000eb00a04588000080fa00000006006a
:10328c000000fa003135800000fc2f000080600047
:10329c00a000b3003035880081368000f00f2c0080
:1032ac008080600000502000008070008036880014
:1032bc001bfe07000080fa00000006000200fa0066
:1032cc00004f78001e40780041fe07000080fa0095
:1032dc00000006000200fa0004fe0700004f780010
:1032ec001e4078000080fa00000006000000fa0082
:1032fc00881f7800c0458000ff0f50004f0036003b
:10330c004024800062006000e00f50004d003a0045
:10331c002cc9bf00e04f50000b003a0001c4b300b1
:10332c0000872000e3fc0700b1e8b700b1c8bf007c
:10333c00e04f50000400320010c0b3002ce9b7007d
:10334c000040eb00b2e8b7002cc9bf00e04f5000c2
:10335c0015003200911180000010200000806000e8
:10336c00e00f500010003200b2c8bf008080fb009c
:10337c00008720000080400010407800cfff07003d
:10338c00b2c8bf000040e800b2e8b700218b2000b3
:10339c0091407800b1c8bf0080cf500002003a00c5
:1033ac000040eb002ce9b700eafd0700e04f5000ad
:1033bc0014003200018b200091407800e0c3b30070
:1033cc0080cf50000f003e00b0c8bf000084fb004f
:1033dc00c0ff070001832000810044008048780072
:1033ec00b0c8bf000040e800b0e8b700b0c8bf00ec
:1033fc008080fb0000832000808040000040eb00b8
:10340c008048780013c9bf00e04f500009003a0013
:10341c00b0c8bf00e04f500006003200b0c8bf007b
:10342c008040780000832000d4fc07000040eb00b3
:10343c00b0e8b70033fd07000300370000000000c0
:10344c0001003700000000004f0478000080fa00f3
:10345c00000006000000fa006b0007000080fa0074
:10346c00000006000000fa000080fa0000000600d0
:10347c000000fa000080fa00000006000000fa00cc
:10348c000080fa00000006000000fa00c8fb0700ec
:10349c000080fa00000006000000fa000080fa002c
:1034ac00000006000000fa0045fc07000080fa004e
:1034bc00000006000000fa0000478000e10f5000f9
:1034cc001b003a0010478000e10f500018003a0032
:1034dc009ec0a900e3ff07008824a9000000eb00b0
:1034ec001047880000e12000b0458800b0458000fe
:1034fc000000e900b0458800b0458000e00f5000a6
:10350c00faff3a009444a80080702000b04588006f
:10351c00b04580000000e900b0458800b04580004f
:10352c00e00f5000faff3a009444a9009ec0a80096
:10353c000080fa00000006000600fa00000f780078
:10354c0011079800220798001e0078002107200020
:10355c00810f50002800320021072000810f5000fd
:10356c000a003c00e20f50001d003200e20f500038
:10357c0003003c00e10f5000170032001f00370021
:10358c00e30f5000180032001c00370041072000e8
:10359c00810f50000e00320041072000810f5000b7
:1035ac000700350051072000810f50000600320043
:1035bc00f1ff2700810f50000d0032000f00370083
:1035cc00abff07000d003700a2ff07000b00370010
:1035dc00a4ff070009003700b2ff070007003700ff
:1035ec00adff070005003700a7ff070003003700f9
:1035fc00a2ff0700010037000000000010002000af
:10360c000080fa00000006000800fa008024800008
:10361c00000f7800602480001007980010248000b0
:10362c0020079800f00480004600de006140600036
:10363c00604798000000eb00802488000000eb003d
:10364c00602488000000eb00102488008ec0a900c4
:10365c008284a80000012000002488009ec0a800dd
:10366c000040fe006e409000614060000080fb0056
:10367c00610060004600dd00f2048000f1fb2f00c9
:10368c008100610000807000f00488001e0078004a
:10369c00802488001e009000602488002e0090007a
:1036ac0010248800100020000080fa0000000600a2
:020000040000fa
:1036bc003008000088000000000000002c09000009
:1036cc00020000000200000000000000b80800002a
:1036dc005200000000000000000800003000000054
:1036ec00000000002e0900008a000000000000000d
:1036fc000a09000022000000000000000000000089
:020000040000fa
:020000040005f5
:0457f8009e230000ec
:020000040000fa
:020000040005f5
:0457fc007f3e0000ec
:00000001FF
